:020000040800F2
:10000000902C00209D010008472F0008812B00083C
:10001000452F0008D50400084B4A000800000000E6
:1000200000000000000000000000000005010008C2
:100030003305000800000000490100080D340008E5
:10004000B7010008B7010008B7010008B7010008B0
:10005000B7010008B9330008B7010008B70100086C
:10006000B7010008B701000835050008B70100080E
:10007000B7010008B7010008F1040008FD040008FA
:10008000B7010008B7010008B7010008AD49000832
:10009000C9490008D9040008E50400083B05000828
:1000A000B7010008B7010008B7010008B701000850
:1000B000B7010008B7010008B7010008B701000840
:1000C000B7010008B7010008B7010008B701000830
:1000D000B7010008B1390008B7010008B7010008EE
:1000E000B7010008B7010008B7010008DFF810D019
:1000F00000F0DEF900480047054E0008AFF300802D
:10010000902C0020224B19680868B0E8F00F80F3AB
:100110000988BFF36F8F4FF0000080F311884EF015
:100120000D0E70470000000006480068006880F36C
:10013000088862B661B6BFF34F8FBFF36F8F00DFE1
:1001400000BF00BF08ED00E0EFF30980BFF36F8F41
:100150000F4B1A6820E9F00F106008B54FF05000FF
:1001600080F31188BFF34F8FBFF36F8F05F040FF0F
:100170004FF0000080F31188BDE808401968086856
:10018000B0E8F00F80F30988BFF36F8F704700BFAE
:1001900020000020EFF305807047000006488047EC
:1001A00006480047FEE7FEE7FEE7FEE7FEE7FEE75C
:1001B000FEE7FEE7FEE7FEE79B340008ED000008DF
:1001C00040EA01039B0703D009E008C9121F08C0D9
:1001D000042AFAD203E011F8013B00F8013B521E59
:1001E000F9D27047D2B201E000F8012B491EFBD2D0
:1001F00070470022F6E710B513460A460446194632
:10020000FFF7F0FF204610BDF0B480EA0102D40FE2
:100210004200B2EB410F02D20246084611464A00A4
:1002200042D0C30DDDB2C1F3C752AD1A202D35DA6D
:10023000C1F3160141F4000204B15242C5F1200697
:1002400002FA06F12A411044B3EBD05F23D0C4B1C7
:10025000012DA0EBC35009DCF0BC4FF0004202EAD4
:10026000C352DBB200F5000000F0D5B8400000F149
:10027000807000EBC350A0F1807040EAD17049005B
:1002800009E0490841EAC071A0EBC35000F5000045
:10029000400800EBC350F0BC00F0B4B8614201224A
:1002A00002EB4101001BF6E7F0BC704781F0004112
:1002B000AAE780F00040A7E780EA010210B502F04B
:1002C0000043400022D04A001FD0010E01EB126112
:1002D000C0F35600C2F3560240F4000042F400029C
:1002E000A0FB022000047F39140400D0401C50EA17
:1002F000124001D44000491EC2B20C0604EBD010DB
:10030000401C4008802A02D003E0002010BD20F0ED
:100310000100002900DA0020184310BD30B480EA43
:10032000010202F0004530F0004221F0004013D0FD
:1003300090B1C30DD40DC2F31601C0F31600E41A38
:1003400041F4000140F400027D34914201D3641C69
:1003500000E04900002C02DA30BC002070474FF466
:1003600000000023914201D3891A034340084FEA59
:100370004101F7D151B1914202D14FF0004105E066
:1003800002D24FF0010101E06FF0010103EBC45014
:10039000284430BC00F036B8C10F80EAE070084451
:1003A000CA079623002100F036B800F0004220F082
:1003B0000040C10DC0F3160040F400007F2901DAAF
:1003C00000207047962903DCC1F19601C84001E086
:1003D00096398840002AF4D040427047002801DB5B
:1003E000C0F10040002901DBC1F1004181427047AA
:1003F000002801DBC0F10040002901DBC1F1004110
:10040000884270470029A8BF7047401C490008BFB8
:1004100020F00100704710B4B0FA80FC00FA0CF034
:1004200050EA010404BF10BC704749B1CCF120046C
:1004300021FA04F411FA0CF118BF012121430843F9
:10044000A3EB0C01CB1D4FEA00614FEA102042BF25
:10045000002010BC704700EBC35010440029A4BF1B
:1004600010BC7047401C490008BF20F0010010BCC0
:10047000704710B541000CD0C0F3C751962908DC75
:100480007E2909DC06DB410204D000F0004040F088
:100490007E5010BD002010BDC1F19604C4F12001B2
:1004A00000FA01F1E040FFF7ADFFA04010BD0000F1
:1004B000064C074D06E0E06840F0010394E80700B1
:1004C00098471034AC42F6D3FFF714FED86D0008FD
:1004D000F86D0008FEE70000014800F0B5B9000023
:1004E000B8000020014800F0AFB90000B8000020BB
:1004F000014800F07BBC000088040020014800F0A7
:1005000075BC00002C03002030B590F84050012449
:10051000AC40C56B6C60046863604368102B036873
:1005200003D099600068C26030BD9A600068C16005
:1005300030BD7047102000F0B9BD202000F0B6BDDE
:1005400072B6FEE710B558B1084C491E0BD310F82F
:10055000013B5340DBB234F8133083EA1222F4E754
:100560004FF6FF7010BD104610BD0000CA6A0008AB
:1005700090F82020012A07D0022A05D0416A41F4D0
:100580008021416201207047006842690A4342614C
:1005900000207047F0B590F820500468A468012D41
:1005A00005D0022D03D0416A41F4802157E014F0B8
:1005B000406F01D1E5004FD5C4F301640125A5408A
:1005C0001D608D684FF4C0739DB1CE6835434E6891
:1005D00045EAC605066803EB0417F5514FF4C275EA
:1005E000076805EB04150E697E51097D012905D0C8
:1005F00009E00E88CD6845EA4655EBE701684E599B
:1006000046F480764E511179D579567941EA0561E3
:1006100095792D0445EA062529434FF4C6760568E9
:1006200006EB0416A9511178D57841EA0561957851
:1006300052782D0445EA022211434FF4C475026832
:1006400005EB04155151006803EB0411425842F0C8
:10065000010242500020F0BD416A41F400114162A4
:100660000120F0BD10B590F820300268012B07D0B2
:10067000022B05D0416A41F480214162012010BD66
:10068000D2F8000240F00100C2F80002087D00F03C
:100690001F0301209840D2F81C328343C2F81C3259
:1006A000CB69B3B9D2F80C328343C2F80C328C89CF
:1006B0004B6864F31F434C6902EBC404C4F8403236
:1006C0000C890B6864F31F434C6902EBC404C4F843
:1006D0004432CB69012B16D1D2F80C320343C2F855
:1006E0000C320C884B6864F31F434C6902EBC40462
:1006F000C4F840320C89CB6864F31F434C6902EBA9
:10070000C404C4F844328B69002BD2F804320FD0F1
:1007100053EA0003C2F804320B69002BD2F81432FA
:1007200008D00343C2F81432096A012904D008E052
:100730008343EFE78343F5E7D2F81C120143C2F885
:100740001C12D2F8000220F00100C2F800020020C2
:1007500010BD704770B590F82040012C05D0022CD8
:1007600003D0416A41F4802128E0046809B3246978
:10077000A40720D04FF4D874056804EB01142D5958
:1007800015F00405956005682D591AD0ED085560DF
:1007900005682C5904F00204D4604FF4DA7405683B
:1007A00004EB01142E5906F00F06082E0CD3082571
:1007B0000DE0E468DCE7416A41F400114162012088
:1007C00070BD6D0D1560E3E72D5905F00F0515613E
:1007D00005682D59C5F30725956105682C59240C2A
:1007E00054614FF4DC72046802EB0112A4581C70CF
:1007F0000468A458240A5C700468A458240C9C70F3
:100800000468A258120EDA704FF4DE72046802EB2C
:100810000112A4581C710468A458240A5C7104686D
:10082000A458240C9C710468A258120EDA71006856
:1008300029B1016941F020010161002070BDC1684A
:1008400041F02001C160F8E72DE9F05F054600683E
:1008500000244669D0F804908768D0F80CB0D0F82E
:1008600010A0D0F81880F10748D0F90714D0012162
:100870008160B80703D5284600F043FA0CE07807FA
:1008800002D54FF4006407E0380702D54FF48054D6
:1008900002E0284600F034FAF80516D529684FF42E
:1008A00080708860B80503D5284600F02CFA0CE06B
:1008B000780502D544F4005407E0380502D544F425
:1008C000804402E0284600F01DFAF80316D5296896
:1008D0004FF480308860B80303D5284600F015FA3D
:1008E0000CE0780302D544F4004407E0380302D555
:1008F00044F4803402E0284600F006FA300707D5B9
:100900005FEACB6004D52968102044F40074C86005
:1009100070074FF0080707D55FEA0B7004D5286809
:10092000C760284600F07EF9B00706D52868C06881
:10093000800702D0284600F077F9700607D55FEAF5
:10094000CA6004D52968102044F480640861B006A8
:1009500007D55FEA0A7004D528680761284600F0C9
:1009600081F9F00606D528680069800702D028467C
:1009700000F07AF9B00308D55FEAC96005D52968A7
:1009800010204860284600F08DF9F00307D55FEA93
:10099000097004D528684760284600F0B7F930048C
:1009A00046D55FEA497040D5F00504D55FEAC870C6
:1009B00001D044F00104B00504D55FEA887001D588
:1009C00044F00204700504D55FEA487001D544F094
:1009D0000404300529D518F0700F26D008F07000F7
:1009E000402815D006DC102809D020280AD030284D
:1009F00016D10AE050280ED0602811D10EE044F044
:100A000008040DE044F010040AE044F0200407E07C
:100A100044F0400404E044F0800401E044F48074B5
:100A20002868816921F0700181612968042048608B
:100A3000002C05D0686A204368622846FFF789FECB
:100A4000BDE8F09F70B5040003D094F8200010B109
:100A500004E0012070BD204600F082F820680168A3
:100A600041F00101016000F02FFC0546052604E07D
:100A700000F02AFC401B0A2811D820684068C007F3
:100A8000F6D02068016821F00201016000F01CFC32
:100A900005460BE000F018FC401B0A2806D9606AE6
:100AA00040F40030606284F82060D2E7206840683B
:100AB0008007EFD4207E0128206801683DD021F016
:100AC00080010160607E01282068016838D021F033
:100AD00040010160A07E01282068016833D021F028
:100AE00020010160E07E0128206801682ED041F0DD
:100AF00010010160207F01282068016829D021F0C1
:100B000008010160607F01282068016824D021F07D
:100B100004010160D4E902010843D4E9041211433D
:100B200008436168491E08432168C861002060626B
:100B3000012084F82000002070BD41F08001C0E752
:100B400041F04001C5E741F02001CAE721F0100162
:100B5000CFE741F00801D4E741F00401D9E70000F4
:100B600010B586B0002100910191029103910068B7
:100B7000284988424BD12848C16941F00071C161C0
:100B8000C16901F000710491816941F0080181613E
:100B90008069224C00F0080004904FF480700090AF
:100BA0006946204600F08EFA601500900220019000
:100BB000032003906946204600F084FA18484168F3
:100BC00021F4C04141F0E06141F4804141600022E4
:100BD0000521132000F0E4FC132000F0D3FC0022D8
:100BE0000521142000F0DCFC142000F0CBFC0022D6
:100BF0000521152000F0D4FC152000F0C3FC0022D4
:100C00000521162000F0CCFC162000F0BBFC06B03D
:100C100010BD00000064004000100240000C0140C4
:100C2000000001407047000010B58AB0044607ABD1
:100C30006A460021FFF78EFD07492068884209D1E6
:100C4000064A07A9684603F09DFF054A07A96846BA
:100C500003F098FF0AB010BD00640040E4230020B8
:100C6000382400207047000010B58AB0044607AB56
:100C70006A460121FFF76EFD07492068884209D1C5
:100C8000064A07A9684603F07DFF054A07A968469A
:100C900003F078FF0AB010BD00640040E423002098
:100CA000382400207047000070B5044690F82000FA
:100CB000012804D0606A40F40020606218E002203D
:100CC00084F820002068016821F00101016000F033
:100CD000FBFA05460EE000BF00F0F6FA401B0A28BA
:100CE00008D9606A40F400306062052084F8200072
:100CF000012070BD20684068C007EDD1606270BD02
:100D0000704770477047704770477047704710B51D
:100D100090F821100022022905D00421816380F877
:100D20002020012010BD01680B6823F00E030B602A
:100D300001680B6823F001030B6090F84030C46B2E
:100D4000012101FA03F3636080F8211080F820206C
:100D5000104610BD10B590F821100024022903D0D0
:100D60000421816301243DE001680A6822F00E023B
:100D70000A6001680A6822F001020A601A4A0168E2
:100D8000914201D1012121E0174A1432914201D14F
:100D900010211BE0144A2832914201D1891515E037
:100DA000114A3C32914201D189140FE00E4A50326F
:100DB000914202D14FF4803108E00B4A64329142F3
:100DC00002D14FF4801101E04FF08071064A083AD9
:100DD0005160012180F82110002180F82010416B22
:100DE00001B18847204610BD080002402DE9F05FA0
:100DF000C16B0C6801680B68D0F840C0042202FA8D
:100E00000CF2494DDFF824A1494E4A4FDFF828B1D2
:100E1000DFF828E122422CD05A072AD50A68920628
:100E200003D40A6822F004020A600168A94201D1D1
:100E3000042219E0514501D1402215E0B14202D10E
:100E40004FF4806210E0B94202D14FF480420BE0CF
:100E5000594502D14FF4802206E0714502D14FF48A
:100E6000800201E04FF080622F4908394A60C16A70
:100E70003BE04FF0020808FA0CF818EA040F4FF0B4
:100E800000094FF0010235D05FEA837832D50B6854
:100E90009B0605D40B6823F00A030B6080F8212021
:100EA0000168A94201D1022219E0514501D1202255
:100EB00015E0B14202D14FF4007210E0B94202D104
:100EC0004FF400520BE0594502D14FF4003206E0D6
:100ED000714502D14FF4001201E04FF00072124947
:100EE00008394A6080F82090816A00291AD0BDE84C
:100EF000F05F0847082505FA0CF5254212D01B07BC
:100F000010D50B6823F00E030B6090F84010C36BF4
:100F100002FA01F15960826380F8212080F8209064
:100F2000016BE2E7BDE8F09F080002401C000240B0
:100F30003000024044000240580002406C00024071
:100F400030B528B308C8134914221944B1FBF2F193
:100F50008900C16310498163022141771A6843F611
:100F6000F0718A43D0E900142143D0E902452C43B3
:100F70002143046921434469214384692143114386
:100F8000196000214163012242770177084630BD94
:100F9000012030BDF8FFFDBF0000024070B50446DF
:100FA00090F82000002501280CD0012084F82000B2
:100FB00094F821600020012E06D084F8200002253C
:100FC000284670BD022070BD022684F82160A0630F
:100FD0002068066826F0010606602046FFF794FAAE
:100FE000E06A00282068016802D041F00E0106E0A6
:100FF00021F0040101602068016841F00A010160EC
:101000002068016841F001010160D9E770B504462C
:1010100000F05AF90546601C02D0044800780444E8
:1010200000F052F9401BA042FAD370BD0C00002022
:1010300070B5144C4FF6FF75102813D0202820D11E
:101040002021204600F02EF900281AD161142046F4
:1010500000F02DF92B460F220BA1BDE870400E4881
:1010600001F000BD1021204600F01CF9002808D135
:101070004FF48041204600F01AF92B460F2207A1B9
:10108000EBE770BD000C01404B455932207472698A
:1010900067676572200D0A00540200204B455931E4
:1010A0002074726967676572200D0A00044910B5E3
:1010B0000A68024202D00860FFF7BAFF10BD0000C4
:1010C000140401402DE9F84FDFF8B8910024A9F18C
:1010D000040B23460F2709F1040AABF1040EC9E003
:1010E0000125A5402A40AA427DD1674ED1F804C00F
:1010F000ACEB0608B44532D014DCBCF1030F3AD097
:1011000009DCBCF1000F2AD0BCF1010F1CD0BCF1EE
:10111000020F31D11DE0BCF1110F17D0BCF1120F3D
:101120002AD119E0B8F5881F19D006DCB8F5803F40
:1011300015D0B8F5801F1FD111E0B8F5001F0ED0F3
:10114000B8F5041F18D10AE0CB6815E0CB681B1D69
:1011500012E0CB6808330FE0CB680C330CE08B68EF
:101160002BB1012B4FF0080303D0456104E00423A9
:1011700002E0056100E00023FF2A01D8064601E0F5
:1011800000F104064FEA840501D9A5F12005D6F83F
:10119000008007FA05FC28EA0C0803FA05F548EA7E
:1011A0000508C6F800804D68ED0062D5374DAE6980
:1011B00046F00106AE61AD6924F0030605F00105B5
:1011C0000095334D06EB050CDCF80850A607360FEA
:1011D00007FA06F825EA0805DFF8B880404503D18C
:1011E0004FF0000817E044E0DFF8AC80404502D142
:1011F0004FF001080FE0DFF8A480404502D14FF026
:10120000020808E0DFF89880404502D14FF003085B
:1012100001E04FF0040808FA06F848EA0508CCF89F
:1012200008804D68D9F80060ED024D4601D516439F
:1012300000E096432E604D68DAF80060AD02554636
:1012400001D5164300E096432E604D68DBF8006040
:10125000AD035D4601D5164300E096432E604D6810
:10126000DEF80060ED03754601D5164300E09643B5
:101270002E60641C0D682A46E5407FF431AFBDE85E
:10128000F88F000008040140000011100010024017
:101290000000014000080140000C01400010014026
:1012A000001401408068084000D001207047C268E7
:1012B00021EA02030A4043EA0241016170470AB190
:1012C000016170470904FBE701488068704700002E
:1012D0000C00002070B5040025D094F83D000025D6
:1012E00020B984F83C50204600F0B8F8242084F857
:1012F0003D002068016821F001010160206801685B
:1013000041F4004101602068016821F4004101605E
:1013100000F048FE4D4A6168914201D84C4900E016
:101320004C49884201D2012070BD4B492368B0FB73
:10133000F1F15E6826F03F060E435E6063689342FB
:1013400006D94FF4967359434FF47A73B1FBF3F116
:101350002368491C1E6A26F03F0631431962616802
:10136000914210D84900401EB0FBF1F2521CC2F36A
:101370000B02042A01D2042022E0B0FBF1F0401C51
:10138000C0F30B001CE0A268F2B301EBC10303EB56
:101390000116431EB3FBF6F35B1C43F480431B05AD
:1013A00049D092B301EBC10202EB0111401EB0FB28
:1013B000F1F0401CC0F30B0040F4804040F40040CA
:1013C0002168CA694CF6FF739A431043C861D4E997
:1013D000071001432068026822F0C0021143016037
:1013E000D4E9030101432068826848F2FF339A433D
:1013F00011438160D4E9050108432168CA6822F0DD
:10140000FF021043C86001E00EE016E020680168AA
:1014100041F0010101602564202084F83D0025632E
:1014200084F83E50002070BD01EB4106431EB3FB23
:10143000F6F35B1CB3E70120C2E701EB4101401E5C
:10144000B0FBF1F0401CC0F30B00B7E7A086010031
:1014500080841E0000093D0040420F0010B586B098
:101460000021009101910291039100680F49884287
:101470001AD10F4CA06940F00800A061A06969462C
:1014800000F008000490C02000901220019003207A
:1014900003900848FFF716FEE06940F40010E06191
:1014A000E06900F40010049006B010BD0054004044
:1014B00000100240000C014002488168027811448B
:1014C000816070470C000020074810B5016841F0AA
:1014D00010010160032000F083F80F2000F006F8EF
:1014E00000F024F8002010BD0020024070B50D4D22
:1014F00004464FF47A712878B1FBF0F00A49096884
:10150000B1FBF0F000F024FF48B9102C07D2002204
:101510002146501E00F044F800206C6070BD012090
:1015200070BD00000C00002018000020134808B512
:10153000816941F001018161816901F0010100913E
:10154000C16941F08051C161C069002200F0805042
:1015500000900F21901E00F023F80521002208467C
:1015600000F01EF8052000F00DF80548416821F054
:10157000E06141F00071416008BD000000100240D0
:1015800000000140002809DB00F01F02012191400A
:101590004009800000F1E020C0F800117047000011
:1015A000F0B40E4B1B680C46C3F30223C3F10705CE
:1015B000042D00D90425191D072901D2002300E0BC
:1015C000DB1E012606FA05F1491E214099409E4086
:1015D000761E16403143F0BC03F0B9BB0CED00E0C1
:1015E000064900F0070208684FF6FF03184040EA7A
:1015F0000220034A10430860704700000CED00E031
:101600000000FA0501EB810200EBC202D0F8D4021F
:10161000526A02F0A1BA01EB810200EBC202D0F8DB
:10162000D402D2F8642102F0FABA70B5044601F08F
:101630000F002279904201D9012070BD0B0601F004
:10164000070000EB800104EBC1014FF001024FF0F5
:10165000000502D54A74103103E081F8515101F5BB
:10166000A8718D70087094F89002012808D084F851
:101670009022206802F0D4FE84F89052002070BDC1
:10168000022070BD2DE9F05F04685FEA424C0B78E0
:101690008D69B4F850C04FF000064BF68F7948F2D0
:1016A000800A48F68F7B48F2C00E4FF480672AD537
:1016B0004FF0020808EBC308C44407EB4C07E45B97
:1016C000C4F30904A54203D32D1B8D6101D00BE0A7
:1016D0008E61066836F8235005EA090585F4005541
:1016E00045EA0A0526F82350520609D50D78036805
:1016F00033F8252002EA0B0242EA0E0223F82520E5
:1017000084B30A8929E04FF0060808EBC308C444F3
:1017100007EB4C07E45BC4F30904A54203D32D1B7C
:101720008D6101D00BE08E61066836F8235005EA22
:10173000090585F4005545EA0A0526F823505206A6
:1017400009D40B78056835F8232002EA0B0242EA37
:101750000E0225F823202CB14A89496900682346E6
:1017600003F044F92046BDE8F09F2DE9F05F0546FF
:1017700000680C465FEA426C16468B692278B0F826
:1017800050C048F68F774CF280094FF4004B4FF66B
:10179000FF7E4FF4806A4FF0000172D54FF00208CF
:1017A00008EBC208E0440AEB480C30F80C00C0F328
:1017B0000900834211D91B1AA3610FD0730407D506
:1017C0002E6836F822303B4043EA090326F82230DF
:1017D00094F82420012A47D052E1A161607810B129
:1017E000012813D01AE02868B0F85030184400EBF4
:1017F0000210B0F80424C2F30902A0F80424B0F8DF
:10180000042442F40042A0F8042407E02868B0F859
:101810005030184400EB0210A0F8041462782868D5
:1018200012B1012A11D018E0B0F850100844217804
:1018300000EB0110B0F80C14C1F30901A0F80C146E
:10184000B0F80C1441F4004105E0B0F85020104409
:10185000227800EB0210A0F80C1421782846FFF73C
:10186000D1FE700472D40BE1626902446261E269E4
:101870000244E2612369226A9A4203D31846111A8C
:1018800004E03EE084F824100AB110462162617839
:1018900011B1012929D031E02968B1F85020114453
:1018A000227801EB0211B1F80424C2F30902A1F875
:1018B000042401F204413E2807D94209C30600D19D
:1018C000521E0B884BEA822207E048B14208C30748
:1018D00000D0521C0B880EEA822213430B800DE0CD
:1018E0000A8842F400420A8008E02968B1F85020D2
:1018F0001144227801EB0211A1F8040483B2228979
:10190000BAE04FF0060808EBC208E0440AEB480CC6
:1019100030F80C00C0F30900834211D31B1AA361F5
:101920000FD0730407D42E6836F822303B4043EAC8
:10193000090326F8223094F82420012A51D09FE090
:10194000A161607818B1012814D01BE03FE028683D
:10195000B0F85030184400EB0210B0F80424C2F381
:101960000902A0F80424B0F8042442F40042A0F8CC
:10197000042407E02868B0F85030184400EB021047
:10198000A0F804146278286812B1012A11D018E076
:10199000B0F850100844217800EB0110B0F80C1496
:1019A000C1F30901A0F80C14B0F80C1441F4004183
:1019B00005E0B0F850201044227800EB0210A0F8A7
:1019C0000C1421782846FFF71DFE700458D42278A5
:1019D000296831F82200384040EA090021F8220045
:1019E0004EE0626902446261E2690244E261236995
:1019F000226A9A4203D31846111A216204E00AB1FE
:101A00001046216284F824106278296812B1012AF4
:101A100028D02FE0B1F850201144227801EB0211B8
:101A2000B1F80C24C2F30902A1F80C2401F20C4114
:101A30003E2807D94209C30600D1521E0B884BEA43
:101A4000822207E048B14208C30700D0521C0B882D
:101A50000EEA822213430B800CE00A8842F4004213
:101A60000A8007E0B1F850201144227801EB0211FE
:101A7000A1F80C04628983B26169286802F0D2FF80
:101A80002278296831F8220048F6BF73184080F0A8
:101A9000300048F28003184321F822000020BDE8FE
:101AA000F09F2DE9F04104460F0601F0070000EB1E
:101AB000800104EBC1014FF001064FF0000502D593
:101AC0004E74103103E081F8515101F5A871022BD9
:101AD00008700A61CB7000D10D7194F89002012852
:101AE00009D084F89062206802F04AFB284684F806
:101AF0009052BDE8F0810220FBE710B501F0070429
:101B000004EB840100EBC101C1E959230022C1F8B3
:101B10006C2181F8512181F85041006801F5A871CC
:101B200002F0D3FC002010BD70B504460D4601F054
:101B300007002179884201D9012070BD29064FF0A4
:101B400000064FF0010206D500EB800104EBC10155
:101B50004A74103107E005EB850104EBC10181F8FF
:101B6000516101F5A8718A70087094F890020128FB
:101B700007D084F89022206802F08EFC680702D01B
:101B800006E0022070BD04F52671206802F046FCD4
:101B900084F89062002070BD10B501F0070404EBDA
:101BA000840100EBC101C1E90923012281F834203D
:101BB0000B630023CB624A7401F8104F006802F0F7
:101BC00084FC002010BD00001FB50446006802F030
:101BD00009FF010403D5204601F0B6F91FBD4105F8
:101BE0000DD5206830F8441F21F480610180204623
:101BF00000F084F80021204600F09BF81FBD41044E
:101C000005D5206830F8441F21F4804174E0810438
:101C100005D5206830F8441F21F400516CE0C10460
:101C200014D5206830F8401F21F00401018020689D
:101C300030F8401F21F008010180204600F071F8C3
:101C4000206830F8441F21F4805155E0010540D54B
:101C5000D4F800200020694632F8203021F81030F6
:101C6000401CC0B20828F7D332F8400F40F0010002
:101C70001080206830F8402F22F001020280206896
:101C8000B0F844205205FBD530F8442F22F480628E
:101C900002800020236831F8102023F82020401C07
:101CA000C0B20828F6D3206830F8401F41F0080180
:101CB0000180206830F8441F21F400610180206811
:101CC00030F8401F41F004010180204600F04CF83C
:101CD0001FBD810509D5206830F8441F21F400712B
:101CE0000180204600F021F81FBDC005FCD520680A
:101CF00030F8441F21F4807101801FBD70B5044687
:101D000080790125022801D0FEF71AFC2946D4F873
:101D1000D40202F027F8D4F8D402BDE8704001F0F4
:101D2000E3BFD0F8D40202F007B8D0F8D40202F032
:101D30000DB810B5044690F8900201280AD0012091
:101D400084F890026173206802F066FE002084F837
:101D5000900210BD022010BDD0F8D42200F52671EB
:101D6000104602F00BB8000010B50446D0F8D402BB
:101D700002F03AF8A07A002804D00348016841F044
:101D80000601016010BD000010ED00E02DE9F843F0
:101D900005460078354CC00754D0E0690026C000E5
:101DA00008D4E06940F08050E061E069012600F06D
:101DB000805000902E480168C90512D40168804601
:101DC00041F480710160FFF77FFA074605E000BF2C
:101DD000FFF77AFAC01B642823D8D8F80000C005A2
:101DE000F6D5206A10F4407021D0A98801F4407122
:101DF00081421CD0206A1F49012220F440700A60F1
:101E000000220A602062C00711D0FFF75DFA074682
:101E100041F2883808E000BFFFF756FAC11B414580
:101E200002D90320BDE8F883206A8007F4D5206A30
:101E3000696820F44070084320621EB1E06920F018
:101E40008050E0612878800705D56068A96820F493
:101E50004040084360602878C00605D56068E9689E
:101E600020F48000084360600020DBE7001002409F
:101E700000700040400442422DE9F0470F46050043
:101E800061D0434E306800F00700B84209D2306894
:101E900020F0070038433060306800F00700B84297
:101EA00051D128683B4C810712D5400703D56068A3
:101EB00040F4E06060602878000703D5606840F473
:101EC000605060606068A96820F0F00008436060BE
:101ED0002878C00728D06868012810D02168022817
:101EE00010D0890700292EDA616821F0030101432F
:101EF0006160FFF7E9F9804641F288390DE0216819
:101F00008903EFE78901EDE7FFF7DEF9A0EB0801B0
:101F1000494502D90320BDE8F0876068696800F090
:101F20000C00B0EB810FEFD1306800F00700B84231
:101F30000BD9306820F0070038433060306800F07B
:101F40000700B84201D00120E5E72878400705D511
:101F50006068E96820F4E060084360602878000762
:101F600006D56068296920F4605040EAC1006060CD
:101F700000F038F86168084AC1F30311515CC840A9
:101F80000649086006480068FFF7B0FA0020C2E77B
:101F90000020024000100240B26A00081800002031
:101FA000100000200448054900684968044AC1F34C
:101FB0000221515CC8407047180000200010024008
:101FC000C26A00080448054900684968044AC1F328
:101FD000C221515CC8407047180000200010024028
:101FE000C26A00080E4A51680E4801F00C03042B27
:101FF00011D0082B0FD10C48C1F38343C903C05C37
:102000000AD55168084AC1F34041921E515C054A05
:102010005043B0FBF1F0704704494843704700005B
:102020000010024000127A00A26A000800093D0078
:102030002DE9F84F040070D02078C04DC00749D07A
:102040006868C0F38100012807D06868C0F3810088
:10205000022809D16868C00306D52868800339D5ED
:1020600060680028E7D035E06068B0F5803F0BD0AD
:1020700010B1B0F5A02F11D0286820F4803028606E
:10208000286820F4802002E0286840F4803028602E
:10209000606890B1FFF718F906460AE0286840F436
:1020A00080202860F0E700BFFFF70EF9801B64284E
:1020B00073D828688003F7D50CE0FFF705F90646CA
:1020C00005E000BFFFF700F9801B6428F0D82868FE
:1020D0008003F7D420789A4E80074FF001094FF023
:1020E000000839D5686810F00C0F07D06868C0F395
:1020F0008100022809D16868C00306D428688007D7
:1021000014D52069012808D110E02069B0B1C6F8C3
:102110000090FFF7D9F8074605E00AE1FFF7D4F889
:10212000C01B0228C4D828688007F7D528686169D1
:1021300020F0F80040EAC10028600DE0C6F80080F9
:10214000FFF7C2F8074604E0FFF7BEF8C01B0228FD
:1021500023D828688007F7D4207800072CD5794841
:10216000A169D9B1C0F80090FFF7AEF8074604E0C6
:10217000FFF7AAF8C01B02280FD8686A8007F7D5B6
:1021800071484FF4FA510068B0FBF1F0009000BFC5
:102190000098411E0091FAD20EE080E0C0F8008065
:1021A000FFF792F8074604E0FFF78EF8C01B0228FD
:1021B00075D8686A8007F7D42078400760D5E86949
:1021C0000027C00008D4E86940F08050E861E86961
:1021D000012700F0805000905C480168C90513D4C5
:1021E0000168834641F480710160FFF76DF8824613
:1021F00006E000BFFFF768F8A0EB0A0064284ED89D
:10220000DBF80000C005F5D5E06801280AD008B168
:10221000052813D0286A20F001002862286A20F0DF
:10222000040002E0286A40F001002862E06841F200
:10223000883B98B1FFF748F882460BE0286A40F0E7
:1022400004002862EEE700BFFFF73EF8A0EB0A01AA
:1022500059455AD8286A8007F6D50CE0FFF734F8BC
:10226000824605E0FFF730F8A0EB0A0159454CD84B
:10227000286A8007F6D41FB1E86920F08050E86131
:10228000E06988B36968C1F38101022944D002285A
:10229000C6F8608004D0FFF717F8044638E034E051
:1022A000FFF712F8074604E0FFF70EF8C01B0228FC
:1022B0002BD828688001F7D4206AB0F5803F05D17B
:1022C0006868A16820F4003008436860D4E9080118
:1022D0000843696821F4741108436860C6F8609087
:1022E000FEF7F2FF044606E025E000BFFEF7ECFF34
:1022F000001B022809D828688001F7D51BE000BF21
:10230000FEF7E2FF001B022802D90320BDE8F88F88
:1023100028688001F4D40EE00128F7D06868226AAA
:1023200000F48031914204D1616A00F47010884257
:1023300001D00120EAE70020E8E700000010024099
:102340000000424280044242180000200070004019
:1023500010B5401EB0F1807F01D3012010BD4FF0B9
:10236000E02460610F21601702F0F1FC0020A06101
:1023700007202061002010BD70B590F83C20012A94
:1023800026D0012480F83C40022280F83D200368DA
:102390005A689D6822F070060A6832435A600D4BF5
:1023A00002689A4208D0B2F1804F05D00A4B9A4297
:1023B00002D00A4B9A4204D1496825F080031943A0
:1023C000916080F83D40002180F83C10084670BDC7
:1023D000022070BD002C01400004004000080040B5
:1023E00010B5040003D094F83D0010B107E00120BF
:1023F00010BD002084F83C00204600F01FF80220A9
:1024000084F83D00211D206801F048F8012084F87F
:10241000460084F83E0084F83F0084F8400084F8C9
:10242000410084F8420084F8430084F8440084F8B2
:10243000450084F83D00002010BD000008B5174A93
:1024400001681748914207D1816941F400618161B7
:10245000806900F4006014E0B1F1804F0AD0114AA5
:10246000914210D1C16941F00201C161C06900F01F
:10247000020006E0C16941F00101C161C06900F0DC
:102480000100009008BD084A9142FBD1C16941F0AA
:102490000401C161C06900F00400F2E7002C0140B2
:1024A00000100240000400400008004070B50446DF
:1024B00090F83C000025012817D0012684F83C60E4
:1024C000022084F83D002068826822F0770222F41E
:1024D0007F4282600868502838D00DDC20284FD019
:1024E00005DC90B3102811D14AE0022070BD3028DD
:1024F00046D040280AD13BE060282FD070280DD06C
:10250000B0F5805F03D0B0F5005F12D0012584F8EC
:102510003D60002084F83C00284670BDCB68D1E9BE
:102520000121206800F0F6FF2068816841F0770102
:1025300009E0CB68D1E90121206800F0EBFF2068B9
:10254000816841F480418160E1E719E0CA68496827
:10255000206800F0F1FF5021206806E0CA68496851
:10256000206800F0FAFF6021206800F0DDFFCEE770
:10257000CA684968206800F0DFFF40212068F4E75E
:10258000226801461046F0E738B5044690F842004C
:10259000202801D0022038BD51B14AB1012020636A
:1025A00000206063204601F081F9216B012901D0F0
:1025B000012038BD21680A684968009121680C3102
:1025C00051E8002F42F0100241E80023002BF5D122
:1025D00038BD000010B500680A4A904210D10A4880
:1025E00000F092FE08494FF48072A1F59A70FFF74F
:1025F000CBFF05485C380068016821F004010160E8
:1026000010BD000000380140880300207047000022
:10261000F8B5016804460868CA684B6910F00F0FE6
:102620004FF0000559D003F0010602F490773743CC
:1026300065D0C10705D0D10503D5616C41F001011A
:102640006164410705D5D90703D0616C41F00201EF
:102650006164810705D5D90703D0616C41F004019D
:102660006164010707D502F02001314303D0616C9A
:1026700041F008016164616C00293AD0800604D5FC
:10268000900602D5204601F054F820684069616C3C
:10269000C0F38010090700D460B3204601F014F89D
:1026A00020684069400621D52068143050E8001F9A
:1026B00021F0400140E80012002AF5D1E06BA8B1FA
:1026C0006D494163E06BFEF745FB002811D0E06BDC
:1026D000416B01B0BDE8F040084783060FD5930673
:1026E0000DD52046BDE8F84001F023B82046FFF79D
:1026F0008DFFF8BD2046FFF789FF6564F8BD266BA6
:102700002023012E7CD1C6067AD5D60678D5086856
:102710004868009048694FF00206400640D5E16BDA
:10272000086840680004000CE8D0A28D8242E5D918
:10273000E085886920282DD020680C3050E8001FE3
:1027400021F4807140E80012002AF5D1206814308D
:1027500050E8001F21F0010140E80012002AF5D1E5
:102760002068143050E8001F21F0400140E80012BA
:10277000002AF5D184F84230256320680C3050E8F7
:10278000001F21F0100140E80012002AF5D1E06B93
:10279000FEF7BDFA6663A08DE18D401A81B22AE092
:1027A000A08DE18D401A81B2E08D0028A6D00029CD
:1027B000A4D022680C3252E8000F20F4907042E856
:1027C0000007002FF5D12068143050E8002F22F0C8
:1027D000010240E80027002FF5D184F8423025633C
:1027E00020680C3050E8002F22F0100240E800234F
:1027F000002BF5D166632046FFF7ECFEF8BDFFE73E
:1028000005062BD5150629D594F841002128F5D1C8
:10281000A068B0F5805F01D12069B0B1206A411C89
:102820002162216800784860E08C401E0004000CA2
:10283000E084E3D12068C16821F08001C160206894
:10284000C16841F04001C160D8E7206A0088C0F348
:1028500008004860206A801C2062E5E74006CDD56C
:102860005006CBD5CA68204622F04002CA6084F8E0
:10287000413000F083F9C1E77F35000870B50400EE
:1028800004D094F84100002510B106E0012070BD8D
:1028900084F84050204600F023F8242084F84100BA
:1028A0002068C16821F40051C160204600F0A2FFF9
:1028B0002068016921F4904101612068416921F09B
:1028C0002A0141612068C16841F40051C16065641A
:1028D000202084F8410084F842006563002070BD28
:1028E0002DE9F04186B000240094019402940394F1
:1028F000054603685248DFF844C102210322514EC5
:102900000715634554D1836943F480438361836928
:1029100003F480430493836943F004038361806973
:10292000039200F0040004900802CDE9000169461A
:102930003046FEF7C7FBCDE9007469463046029485
:10294000FEF7C0FB414E40484FF08008C6E9000446
:10295000C6E902484FF44057F76120203461C6E9C8
:1029600005403046FEF7ECFA08B1FDF7E9FDEE63ED
:1029700075623548364E143801C61020A6E811019C
:10298000334846F810497461C6E90647FEF7D8FA9D
:1029900008B1FDF7D5FDAE63002205212520756243
:1029A000FEF7FEFD2520FEF7EDFD06B0BDE8F08147
:1029B000284DAB421ED1C36943F40033C361C369E0
:1029C00003F400330493836943F004038361806953
:1029D000039200F0040004900420CDE90001694650
:1029E0003046FEF76FFB0820CDE90004694630460B
:1029F000029420E0184DAB42D7D1C36943F4802341
:102A0000C361C36903F480230493836943F008031B
:102A100083618069CDE9007100F00800CDE90320F1
:102A20000E4D69462846FEF74DFBE814CDE900043B
:102A3000694628460294FEF745FBB6E70038014098
:102A40000010024000080140580002402C03002002
:102A5000880400200044004000480040000C014071
:102A6000704770472DE9F843044690F841009846B6
:102A700016460D46202802D00220BDE8F88385B115
:102A80007EB100206064212084F84100FEF71CFC28
:102A9000A6848146E684A0682027B0F5805F02D036
:102AA00003E00120E9E7206910B12E4600250EE081
:102AB00000260CE08021204600F040FFA8B9C6B1F6
:102AC00016F8010B21684860E08C401EE084E08C21
:102AD0004B464FF00002CDF800800028EAD14FF0BD
:102AE0004001204600F02AFF40B184F841700320E5
:102AF000C3E735F8020BC0F30800E3E784F8417040
:102B00000020BAE770B5044690F84100202801D0B3
:102B1000022070BD49B342B32162A284E284002046
:102B20006064212384F84130A56B114BAB62A56B27
:102B3000104BEB62A56B104B2B63A36B586325689E
:102B400013462A1DA06BFEF729FA21686FF040009A
:102B500008602068143050E8001F41F0800140E810
:102B60000012002AF5D1002070BD012070BD0000C8
:102B70007D360008BF3600088F3500087047704763
:102B8000FEE700002DE9F0475FEA020998460A4691
:102B900082466BD0B8F1000F68D03548D0E90061AB
:102BA00047691046FDF788FB04465146FDF72CFBAC
:102BB000054620465146FDF77CFB04462D4930462C
:102BC000FDF77AFB064631462846FDF7A7FB05468A
:102BD00031462046FDF7A2FB274E044631462846E3
:102BE000FDF76AFB054631462046FDF765FB0446C6
:102BF000284602F095FEFDF7D8FB0646204602F077
:102C00008FFEFDF7D2FB05463046FDF7C5FB394682
:102C1000FDF7EEFB03D23846FDF7C7FB064687F00B
:102C200000443046FDF7B8FB2146FDF7D7FB03D241
:102C30002046FDF7BAFB06462846FDF7ADFB3946B0
:102C4000FDF7D6FB03D23846FDF7AFFB0546284615
:102C5000FDF7A2FB2146FDF7C1FB03D22046FDF79D
:102C6000A4FB0546C9F80060C8F80050BDE8F0872D
:102C7000C4090020DB0FC94000002041704700005C
:102C80000E4810B50C4901600621416000214FF447
:102C9000E0228160C0E903124FF400124261017624
:102CA00041768176C17601774177FDF7CBFE00282A
:102CB00001D072B6FEE710BD00640040B8000020ED
:102CC0002DE9F04186B0002431480094019402942B
:102CD0000394816941F010018161816901F0100163
:102CE0000491816941F020018161816901F0200135
:102CF0000491816941F004018161816901F004015D
:102D00000491816941F0080181618069214F00F0DF
:102D100008000490002210213846FEF7D0FADFF8B0
:102D200078804FF4E046002231464046FEF7C7FA6D
:102D300001251020CDE9000569463846CDE9024558
:102D4000FEF7C0F90220CDE90240CDE900656946F1
:102D50004046FEF7B7F9302000901048CDE9010455
:102D600069464046FEF7AEF9002205210A20FEF72B
:102D700017FC0A20FEF706FC002205211720FEF7AB
:102D80000FFC1720FEF7FEFB06B0BDE8F081000047
:102D90000010024000080140000C0140000021101A
:102DA00010B586B00024184800940194029403944E
:102DB00004941449059401604721C0E9011440F2CC
:102DC000E731C0E903148021C0E90541FFF708FBA2
:102DD00008B172B6FEE74FF48050009069460A4889
:102DE000FFF764FB08B172B6FEE7049404A9064835
:102DF0000594FFF7C1FA002801D072B6FEE706B0CD
:102E000010BD0000002C01403401002010B586B038
:102E100000241748009401940294039404944FF002
:102E20008041059401604721C0E9011440F2E73177
:102E3000C0E9031480218161FFF7D2FA08B172B6AC
:102E4000FEE74FF48050009069460948FFF72EFBDB
:102E500008B172B6FEE7049404A905480594FFF78B
:102E60008BFA002801D072B6FEE706B010BD000054
:102E70007C01002010B586B000241748009401940E
:102E80000294039404941349059401604721C0E916
:102E9000011440F2E731C0E9031480218161FFF79A
:102EA0009FFA08B172B6FEE74FF480500090694671
:102EB0000948FFF7FBFA08B172B6FEE7049404A9CB
:102EC00005480594FFF758FA002801D072B6FEE7CE
:102ED00006B010BD00040040C401002010B586B04B
:102EE0000024174800940194029403940494134915
:102EF000059401604721C0E9011440F2E731C0E9BF
:102F0000031480218161FFF76BFA08B172B6FEE706
:102F10004FF48050009069460948FFF7C7FA08B19E
:102F200072B6FEE7049404A905480594FFF724FA55
:102F3000002801D072B6FEE706B010BD00080040C0
:102F40000C020020FEE7FEE72DE9F84F044640F6AC
:102F50008F7B48F60F794FF480684FF0000ABDE18F
:102F6000B0F8441011F00F0539D030F82560310465
:102F70007ED530F8251001EA0B0141F0800120F8E0
:102F8000251005EB850004EBC00797F85C0107F5F9
:102F9000A87700286DD0F87802286BD0397822689D
:102FA00032F8210048F68F73184048F2C0031843E6
:102FB00022F821003978206830F82120B0F850300C
:102FC00052047DD5022202EBC1015A1808EB4201DE
:102FD000415A8905890D009173D03A89DDE0C9060F
:102FE0002BD4018801EA090141F4004101802068E5
:102FF00004F11005B0F85030217C022202EBC1012F
:103000005A1808EB4201405AC0F30900E062616AB5
:103010000844606200212046FEF7F4FA607B002835
:103020009DD0A86900289AD1607B216840F080007B
:10303000A1F84C0084F80DA050E1018804F5A875B2
:103040000A0521D5B0F850202B78062101EBC301E9
:103050000A4408EB4201405A04F52671C0F3090303
:10306000EB61EA88206801F0C1FC2068018802E079
:10307000AEE06EE07EE001EA0B0141F080010180EC
:103080002046FEF769FE29E10904D5D5018801EA49
:103090000B0141F0800101802068B0F850202B78AE
:1030A000062101EBC3010A4408EB4201405A8305A3
:1030B0009B0DEB6110D0696971B1EA88206801E06D
:1030C0005FE05DE001F092FCE969686908446861CD
:1030D00000212046FEF79FFA216808880205ABD43C
:1030E000C0F301300328A7D0B1F850000844B0F86D
:1030F0000C14C1F30901A0F80C142A6900F20C4069
:103100003E2A09D95109D20600D1491E02884FF43E
:10311000004343EA812109E0B2B15108D20700D04F
:10312000491C02884FF6FF7303EA81210A4302809B
:10313000216808884BF68F72104080F4405048F2A6
:10314000800210430880C9E0018841F400410180F9
:10315000EEE72068B0F850203B78062101EBC30170
:103160000A4408EB4201415A8905890D009118D0A3
:10317000FA8812E0324639462046FEF783FA00907C
:103180000FE0062202EBC1015A1808EB4201415A36
:103190008905890D009104D07A897969009B01F035
:1031A00025FCF86900990844F86179690098084499
:1031B0007861B86918B139690098814204D93978C1
:1031C0002046FEF728FA03E03946206801F07DF931
:1031D00030062ED505EB850004EBC001206830F8E1
:1031E000252002EA090242F4004220F82520C87C8A
:1031F000103101281ED0F0056CD42068B0F8503092
:103200000D78022202EBC5021A4408EB4202805AF2
:103210008A69C0F30900824255D9121A8A6154D0D2
:103220004A6902444A61CA691044C861206801F0D1
:103230004CF953E0C1F818A0087B524608B3700659
:1032400020D5487810B1012812D03AE02068B0F8B3
:10325000502010440A7800EB0210B0F80424C2F3A6
:103260000902A0F80424B0F8042442F4004206E065
:103270002068B0F8503018440B7800EB0310A0F829
:1032800004241EE04B78206813B1012B11D018E004
:10329000B0F8502010440A7800EB0210B0F80C246B
:1032A000C2F30902A0F80C24B0F80C2442F4004246
:1032B00005E0B0F8503018440B7800EB0310A0F88C
:1032C0000C24097802E0C1F818A0E9B22046FEF704
:1032D00099F903E032462046FEF747FA2068B0F835
:1032E000441009043FF53CAE0020BDE8F88F000013
:1032F00004490020087301F5807141F81E0F4860F1
:1033000088607047E40900202DE9FF5F0E46050044
:1033100045D0002E43D000243EE0285D5A283AD103
:10332000E01CB0423BD828198046877890F801A06D
:10333000B81D04EB0009B14531D809EB050010F8C0
:10334000010CA52827D1E01928444FF6FF72B0F8E8
:1033500003B04046F91CFDF7F5F883451BD108F191
:103360000301BAF1100F14D10D2F12D10D226846AE
:10337000FCF726FF0B49DDF801000860DDF80920A5
:103380004A60A1F58F7108600020C1E901020120A7
:1033900008734C4600E0641CA01DB042BDD9BDE8D6
:1033A000FF9F0000020B0020002804D018220146D5
:1033B000112001F041BE70477047000010B5202178
:1033C0000C48FCF716FF0B480B4901600B494160A4
:1033D0000B4981604FF48051C1604FF07E51016113
:1033E0000849416101210176022141760649C16106
:1033F000002010BDC40900206744A93D448B6C3EE9
:103400005C8F823E00007A440000204110B5FEF738
:1034100053F803F03FF9012803D0BDE8104002F053
:103420006DBE10BD30B593B028216846FCF7E1FEB3
:1034300014210AA8FCF7DDFE002401200F9410944B
:103440001194010412948DE8130004904FF4E010DD
:10345000CDE90810022507956846FEF7E9FD08B199
:1034600072B6FEE70F20CDE90A054FF48060CDE982
:103470000C4002210AA80E94FEF7FEFC08B172B6B9
:10348000FEE710200F9012940FA8FEF77FFC002893
:1034900001D072B6FEE713B030BD7047F0B50268D8
:1034A000194B1A4C1A4D4FF08047984205D0B8423C
:1034B00003D0A04201D0A84203D122F070064A688E
:1034C0003243984205D0B84203D0A04201D0A8426E
:1034D00003D122F44074CA6822434C6922F080026E
:1034E000224302608A68C2620A688262984201D1FD
:1034F00009690163012141610169C90703D00169BB
:1035000021F001010161F0BD002C014000040040E8
:103510000008004010B5846842EA032224F47F4486
:103520000A432243826010BD826822F070020A437F
:1035300042F007018160704710B5036A046A24F005
:1035400001040462846924F0F00444EA021423F0C4
:103550000A020A438461026210BD10B5036A046A5C
:1035600024F010040462846923F0A00324F470445E
:1035700044EA023243EA01118261016210BD10B5D2
:10358000406A0021C185C184FFF740F810BD70B5C5
:10359000446A2068406994F84110C0F3C0100025C7
:1035A000212904D118B1E584204600F0B4F8206840
:1035B000406994F84210C0F38010222904D118B158
:1035C000E585204600F080F8606C40F010006064F3
:1035D0002046FFF71BF870BD10B50146406A096828
:1035E00009684FF0000289062ED4C28501680C31AB
:1035F00051E8003F23F4807341E80034002CF5D1FA
:103600000168143151E8003F23F0010341E8003420
:10361000002CF5D10168143151E8003F23F040033C
:1036200041E80034002CF5D1202180F84210016BD4
:10363000012909D101680C3151E8003F23F0100342
:1036400041E80034002CF5D14263016B012902D01E
:10365000FFF706FA10BD818DFEF7BCFF10BD10B557
:10366000406A01214163016B012902D0FFF7F9F99A
:1036700010BD818D4908FEF7ADFF10BD10B50146A4
:10368000406A09680968890616D40021C184016866
:10369000143151E8002F22F0800241E80023002B72
:1036A000F5D101680C3151E8002F42F0400241E8A9
:1036B0000023002BF5D110BDFFF760FA10BD10B547
:1036C000406AFFF75CFA10BD01680C3151E8002F29
:1036D00022F4907241E80023002BF5D101681431E7
:1036E00051E8002F22F0010241E80023002BF5D120
:1036F000016B012909D101680C3151E8002F22F03A
:10370000100241E80023002BF5D1202180F842105F
:1037100000210163704701680C3151E8002F22F04D
:10372000C00241E80023002BF5D1202180F8411090
:10373000704708B590F84210222901D0022008BD38
:1037400082684FF480539A4201D1016921B1816AA4
:103750009A421BD04AB10AE00268816A5268C2F3F9
:1037600008020A80816A891C08E0026972B1026855
:10377000526802F07F020A70816A491C8162C18D21
:10378000491E0904090CC18503D01BE00268526878
:10379000F1E70168CA6822F02002CA600168CA68BD
:1037A00022F48072CA6001684A6922F001024A610B
:1037B000202180F8421000214163026B012A03D0CE
:1037C000FFF74EF9002008BD016301680C3151E894
:1037D000002F22F0100241E80023002BF5D10168F0
:1037E0000A68D20602D50A6849680091818DFEF701
:1037F000F1FEE7E770B5044600680169E26821F46C
:103800004051114301612169A0680843616908437F
:103810002168CA6841F20C639A430243CA60206877
:103820004169A26921F44071114341611E49206838
:10383000884202D1FEF7C6FB01E0FEF7B3FB00EBC6
:10384000C00101EB0012606864218000B2FBF0F35C
:10385000B3FBF1F36FF018067343B2FBF0F5B2FB64
:10386000F0F605EB8305322303EB0515B5FBF1F507
:10387000B6FBF1F605F0F00505EB0615B2FBF0F628
:10388000B2FBF0F0B0FBF1F06FF01802504306EB22
:10389000800003EB0010B0FBF1F0216800F00F0096
:1038A0002844886070BD00000038014038B581624E
:1038B00004468285002013466064222284F8422058
:1038C000E56B1B4AAA62E56B1A4AEA62E56B1A4A83
:1038D0002A63E26B50630A462168E06B091DFDF71D
:1038E0005DFB2068016840680090206948B120684D
:1038F0000C3050E8001F41F4807140E80012002AAB
:10390000F5D12068143050E8001F41F0010140E873
:103910000012002AF5D12068143050E8001F41F051
:10392000400140E80012002AF5D1002038BD000017
:10393000D93500085F3600088F3500082DE9F843B7
:10394000984617460D460446089E24E0701C22D077
:10395000FDF7BAFCA0EB0800B0421AD8CEB120683F
:10396000C168490717D5802D15D0402D13D00168A7
:10397000C94309070FD4016800254068009020461C
:10398000FFF7A2FE0820606484F840500120BDE8E3
:10399000F8830320FBE72068006835EA000004D0C4
:1039A0000020B842D2D00020F1E70120F9E7000062
:1039B0000148FEF72DBE00005402002010B5D0F8DB
:1039C000B42252689047002010BD134610B50A4635
:1039D000002100F080F9002010BD134610B50A4602
:1039E000002100F00AFA002010BD10B50446802125
:1039F00000F0F1F92046BDE81040002100F0EBB9DD
:103A000010B505210023C0F894121A46194600F09B
:103A100062F9002010BD10B50223C261C0F89432D3
:103A2000026213460A46002100F0E7F9002010BDAB
:103A300010B504210023C0F894121A46194600F06C
:103A4000DCF9002010BDF8B504460020ADF80000F8
:103A500048880D46010A082948D2DFE801F04704EA
:103A6000091747473C45D4F8B012207C0A6819E092
:103A7000207C02260028D4F8B40205D0C16A68462A
:103A80008847014646703EE0816AF8E7C0B20628E2
:103A90002CD2DFE800F0030A1014181CD4F8B0028E
:103AA000426805E0694690471CE0D4F8B00282689D
:103AB000E2B1207CF6E7D4F8B002C268F8E7D4F8A7
:103AC000B0020269F4E7D4F8B0024269F0E7D4F832
:103AD000B0028269ECE7207C40B9D4F8B402416BB3
:103AE0006846884701460EE0207C20B129462046E2
:103AF000FFF77BFFF8BDD4F8B402016B6846884736
:103B0000014607204870BDF8000048B1EA8852B16C
:103B1000824200D90246ADF800202046FFF77BFF25
:103B2000E8880028E6D12046FFF782FFF8BD0100B3
:103B30004FF0000004D0012901D0022901D0022059
:103B400070470120704710B5D0F8C002FDF76DFD39
:103B5000BDE81040FFF7EBBF2DE9F04117460446E2
:103B600051B1D4F8B40242691AB194F89C02032806
:103B700051D00220BDE8F081D4F89432002504F140
:103B80001400022B03D0042B3AD0C3B33CE0D0E99D
:103B900003639E4207D9F11AC1608AB239462046B2
:103BA000FFF71BFF12E08068B0FBF3F103FB11018C
:103BB00099B9984211D3D4F8981288420DD20022B4
:103BC00011462046FFF709FFC4F8985200231A4611
:103BD0001946204600F07FF816E0D4F8B402C16818
:103BE00029B194F89C02032801D1204688478021FE
:103BF000204600F0F0F82046FFF702FF04E0FFE760
:103C00008021204600F0E7F894F8A002012804D1B2
:103C100084F8A05201E0204690470020AAE770B542
:103C20001546044649B1D4F8B40282691AB194F831
:103C30009C02032830D0022070BDD4F8941204F501
:103C4000AA70032902D005291ED027E0D0E903215C
:103C50008A420BD9531AC3600846834200D30346F5
:103C60009AB229462046FFF7B0FE17E0D4F8B40216
:103C7000016929B194F89C02032801D120468847A4
:103C80002046FFF7D5FE09E000200146C4F8940263
:103C9000204600F0A0F801E020469047002070BDCB
:103CA0000A0601F07F01D0F8C00201EB810100EBB0
:103CB000C10001D5807C704790F85201704710B563
:103CC0001C461346D0F8C0022246FDF7EAFEBDE8C6
:103CD0001040FFF72CBF10B5D0F8C002FDF70DFF64
:103CE000BDE81040FFF723BF70B500220446402313
:103CF0001146FFF7E4FF40260125C4F8646133460E
:103D0000002280212046C4F85851FFF7D8FF666290
:103D1000A56184F89C520020C4F894026060C4F845
:103D2000A402D4F8B80228B1D4F8B4020021426841
:103D300020469047002070BD90F89C12042903D1C2
:103D400090F89D1280F89C120020704710B590F8F2
:103D50009C12032904D1D0F8B412C96901B1884773
:103D6000002010BD01740020704710B5D0F8C002CB
:103D7000FDF7DFFFBDE81040FFF7D9BE70B5044680
:103D800000F52A70054600F041F80120C4F89402BD
:103D9000B4F8AE02C4F8980294F8A80210F01F011B
:103DA0000AD001290DD0022910D000F08001204650
:103DB00000F011F8002070BD2946204600F088F878
:103DC000F8E72946204600F0B4F9F3E729462046F3
:103DD00000F007F9EEE710B5D0F8C002FDF7A4FE39
:103DE000BDE81040FFF7A3BE90F89C1280F89D122A
:103DF000042180F89C120020704710B5D0F8C00252
:103E0000FDF7CAFEBDE81040FFF791BE0A780270C8
:103E10004A7842708A78CB7802EB032242800A7992
:103E20004B7902EB032282808A79C97902EB012166
:103E3000C180704710B5D0F8B42202241AB11268BC
:103E4000904700B90024204610BD000070B50E4612
:103E50001E4D897804462970012931D894F89C02B6
:103E600002280BD003280FD031462046FFF7BDFDB6
:103E700029782046BDE87040FFF7A0BDD9B10320E6
:103E8000616084F89C0209E071B16068884212D0D8
:103E9000C1B22046FFF792FD297861602046FFF706
:103EA000C9FF02280CD006E0022084F89C022046BC
:103EB0006160FFF783FD2046BDE87040FFF7B8BDA5
:103EC00031462046BDE87040FFF78FBD1C00002042
:103ED0002DE9F0410A784FF0000812F0600208D096
:103EE000202A01D0402A6FD1D0F8B422926890479E
:103EF0006CE04B780022012502260A2B64D2DFE811
:103F000003F03F5B6355630805632B28FFF79BFDB8
:103F10005CE004468888D0B9C888C0B94888802841
:103F200015D200F07F0794F89C0203280FD084F884
:103F30009E7239462046FFF718FF2046FFF778FDAE
:103F400017B184F89C6241E084F89C523EE0204620
:103F50003AE0FFF77BFF39E0CB88012B34D190F8B2
:103F60009C32012B04D0022B02D0032B2CD104E075
:103F70008260012200F1080115E00122011D12E01A
:103F800090F89C32012B03D0022B01D0032B1BD1C4
:103F9000CB88022B18D1C260D0F8A41201B1C66040
:103FA000022200F10C01FFF736FD0FE049880129DC
:103FB0000CD1C0F8A45211E090F89C32012B08D02B
:103FC000022B06D0032B04D0FFF70FFD4046BDE8BF
:103FD000F08149880129F9D1C0F8A422FFF728FD12
:103FE000F4E72DE9F0410A460446107800270979E4
:103FF00010F060030AD0202B01D0402B50D1D4F810
:10400000B40211468368204698478FE0C0F3411000
:10401000012806D05078D0B301282AD003283FD1F8
:1040200007E0D4F8B402114683682046BDE8F041A9
:10403000184794F89C02022802D0032872D10AE0A3
:1040400071B380296ED02046FFF7C5FE802120463F
:10405000FFF7C1FE6AE0508838B931B1802904D039
:10406000D08810B92046FFF7B6FE2046FFF7E0FCE7
:104070005CE094F89C020228E2D0032852D15088D8
:1040800098BB4806F1D02046FFF75DFDEDE7FFE75E
:1040900094F89C020026022803D0032842D112E0A3
:1040A00040E009B180293DD1080601F07F0000EB16
:1040B000800004EB800101D5143101E001F5AA7103
:1040C00002220E602AE0080601F00F0000EB8000DB
:1040D00004EB80000AD5806920B301F07F0000EB7B
:1040E000800004EB800514350BE01FE0D0F8580188
:1040F000C0B101F07F0000EB800004EB800505F506
:10410000AA7541B1802906D02046FFF7C9FD10B13C
:104110000120286000E02E60022229462046FFF799
:104120007AFC03E011462046FFF75FFC3846BDE805
:10413000F08170B5054608780C4610F0600003D099
:10414000202801D0402816D195F89C02012803D0E0
:10415000022801D003280ED1207901280BD8D5F8E8
:10416000B402826828469047E188014306D1284678
:10417000FFF75EFC02E02846FFF737FC002070BD29
:104180002DE9F0470C78002630F8243048F68F12DD
:104190001340CA78002A78D0012A7CD0022A02D0A3
:1041A000032A75D0012648F28002134320F82430F8
:1041B0000D7830F8253048F68F7423402B43134395
:1041C00020F825300D7B48F2C00948F6BF734CF249
:1041D000800A4BF68F77EDB3CD7891F800C0022DB1
:1041E00030F82C507DD048F68F6805EA0805154355
:1041F00020F82C50B0F8505091F800C0054405EB61
:104200000C15B1F808C02CF0010CA5F800C4B0F8EA
:10421000505091F800C0054405EB0C15B1F80AC0E8
:104220002CF0010CA5F808C44D78002D7ED00D7837
:1042300030F825C05FEA4C4C07D530F825C00CEAB1
:10424000040C4CEA0A0C20F825C091F800C030F8A4
:104250002C5000E022E06D0606D530F82C502540A9
:1042600045EA090520F82C50CC780D78012C30F85F
:10427000254004EA03047CD084F02003134320F893
:104280002530C1E001E006E002E043F400738AE774
:1042900043F4C06387E743F4806384E74D784DB30C
:1042A000B0F850500F78054405EB0715CF8827F07C
:1042B0000107A5F800740F7830F827506D0606D571
:1042C00030F82750254045EA090520F82750CC78DA
:1042D000012C07D00C7830F82410194081F020010F
:1042E00004E064E00C7830F824101940114320F801
:1042F000241090E0B0F850300D78034403EB051320
:10430000CD8825F00105A3F80854B0F850300D7899
:10431000034403EB0513B3F80C54C5F30905A3F8E4
:104320000C540D6903F20C433E2D00E045E00BD91F
:104330004FEA551CED0601D1ACF1010C1D884FF47C
:10434000004848EA8C2C0BE035B34FEA550CED07DA
:1043500001D00CF1010C1D884FF6FF7808EA8C2C77
:1043600045EA0C051D800D7830F825305B0408D532
:1043700000E046E030F82530234043EA0A0320F805
:104380002530097861B130F821303B4083F4005387
:10439000134320F821303EE01D8845F40045E1E755
:1043A0000188394081F440511143018033E02540B8
:1043B00048F2801845EA08051AE791F800C030F87D
:1043C0002C506D0406D530F82C50254045EA0A05DE
:1043D00020F82C5091F800C030F82C506D0606D50E
:1043E00030F82C50254045EA090520F82C500D786E
:1043F00030F825403C4084F44054144320F82540D4
:1044000070E7144320F825400B7830F8231039402A
:10441000114320F823103046BDE8F0870020704794
:1044200030B50A7BB2BB4A7848F68F7548F28004F3
:10443000C2B10B7830F82320520607D530F823207C
:104440002A4048F2C0052A4320F82320CA78012ACE
:1044500020D00A7830F8221048F6BF73194081F056
:10446000200114E00A7830F822305B0407D530F8D8
:1044700022302B404CF280052B4320F822300A7862
:1044800030F822104BF68F73194081F440512143CC
:1044900020F82210002030BD10B54A780978002A93
:1044A00048F2800330F8212005D048F6BF7422403E
:1044B00082F0100204E04BF68F74224082F48052A6
:1044C0001A4320F82120002010BD2DE9F0470D46A9
:1044D0004B78097B04464FF0000948F68F7248F28A
:1044E000800A4FF400474FF6FF78012B09D00029CE
:1044F0006FD0E87802286DD001286CD00120BDE88B
:10450000F087AE692869864200D9064691B1E978FC
:1045100002291ED0286A801B2862287834F82010CF
:104520004906B4F85010214401EB001073D5A0F8EF
:104530000C6416E1B3B2EA882046696900F072FAA9
:10454000B4F850002978204400EB0110A0F804646E
:104550000DE1296A814277D9297834F82100104089
:1045600048F28012104324F82100286A801B286238
:10457000287834F820104906697871D511B10129DD
:104580002AD030E0B4F85010214401EB0010B0F80C
:104590000C14C1F30901A0F80C1400F20C403E2EDB
:1045A00007D97109F20600D1491E028847EA812124
:1045B00007E04EB17108F20700D0491C028808EAF2
:1045C00081210A4302800EE0018841F4004101800C
:1045D00009E0F1E020E195E1B4F85020111901EB78
:1045E0000010A0F80C646A89B3B22046696900F033
:1045F00019FA6869304468612969286A884202D9D1
:10460000801B286202E00646C5F82090687818B141
:1046100001282BD032E02FE0B4F850002978204454
:1046200000EB0110B0F80414C1F30901A0F8041460
:1046300000F204403E2E08D97109F20600D1491E4D
:10464000028847EA812108E0A1E056B17108F2072B
:1046500000D0491C028808EA81210A4302800DE04B
:104660000EE0018841F40041018007E0B4F85000F9
:104670002978204400EB0110A0F804642A8971E035
:1046800011B1012927D02DE0B4F85010214401EBDD
:104690000010B0F80414C1F30901A0F8041400F2EA
:1046A00004403E2E07D97109F20600D1491E028846
:1046B00047EA812107E04EB17108F20700D0491C9A
:1046C000028808EA81210A4302800BE0018841F454
:1046D0000041018006E0B4F85010214401EB0010C5
:1046E000A0F804642A89B3B22046696900F09AF9F7
:1046F0006869304468612969286A884202D9801B48
:10470000286202E00646C5F82090687810B10128BA
:1047100036D026E0B4F850002978204400EB011090
:10472000B0F80C14C1F30901A0F80C1400F20C400D
:104730003E2E07D97109F20600D1491E028847EAC8
:10474000812107E04EB17108F20700D0491C0288B0
:1047500008EA81210A43028003E0018841F4004114
:1047600001806A89B3B22046696900F05BF9297853
:1047700034F8210048F6BF72104080F030000FE19D
:10478000B4F850100819297800EB0110CFE62A7808
:1047900034F8220048F68F63184040EA0A0024F8F3
:1047A0002200B4F850002A78204400EB02108BB2AB
:1047B000A0F804342A89D6E7A9692869814202D978
:1047C000091AA96102E00846C5F81890B4F850101B
:1047D0002A78214401EB0211B1F80C24C2F309023A
:1047E000A1F80C2401F20C413E287DD94209C006F3
:1047F00000D1521E088847EA82220AE0088840F465
:10480000004007E04208C00700D0521C088808EAB0
:10481000822210430880BBE033BBB4F850002978F3
:10482000204400EB0110B0F80414C1F30901A0F812
:104830000414296900F204403E2907D94B09C9062E
:1048400000D15B1E018847EA832307E041B14B0892
:10485000C90700D05B1C018808EA8323194302E0E2
:10486000018841F400410180687810B1012828D006
:1048700030E0B4F850002978204400EB0110B0F883
:104880000C14C1F30901A0F80C14296900F20C40C2
:104890003E2907D94B09C90600D15B1E018847EAAA
:1048A000832307E041B14B08C90700D05B1C018896
:1048B00008EA8323194302E0018841F400410180A2
:1048C00008E0B4F850100819297800EB0110298A83
:1048D000A0F80C14E869C0B3297834F82100430427
:1048E00001D5430605D400E046E044F240031842F7
:1048F0004ED134F82100104048F2C002104324F891
:10490000210045E0A9692869814202D9091AA961F3
:1049100002E00846C5F8189013BBB4F850102A7886
:10492000214401EB0211B1F80424C2F30902A1F8F9
:10493000042401F204413E2808D94209C30600D1EB
:10494000521E0B8847EA822208E021E078B1420833
:10495000C30700D0521C0B8808EA822213430B8045
:10496000697800293FF42EAF012909D010E00A88A8
:1049700042F400420A80F3E700287FF443AF3DE7AA
:10498000B4F8502011192A7801EB0211A1F80C0497
:10499000297834F821004BF68F72104080F4405093
:1049A00040EA0A0024F821000020A8E510B50448D8
:1049B000FBF74AFFBDE810400248FDF705B90000CB
:1049C000B8000020EC06002010B50448FBF73CFFBF
:1049D000BDE810400248FDF7F7B80000B80000201D
:1049E000EC060020B0F844007047000010B500EB62
:1049F00042005C0800F5806009D000BF30F8042B4D
:104A000001F8012B120A01F8012B641EF6D1DA0716
:104A100001D00088087010BD11B98021A0F84C1099
:104A20000020704710B55B1C00EB42005B0800F5EE
:104A3000806009D011F8012B11F8014B42EA0422E1
:104A400020F8042B5B1EF5D110BDFEE70B460022BB
:104A500041F2170100F0E9B870B50D4606002DD0FF
:104A600000234FF4D0541A46214600F037F90028AD
:104A700025D1134B01222146304600F002F90028CF
:104A80001DD1012300222146304600F027F90028DD
:104A900015D14FF4C054FE2302222146304600F0C7
:104AA0001DF900280BD14FF6FF7000EA450321469F
:104AB0003046BDE87040052200F0B7B8062070BD52
:104AC00020036C6070B546F24004054606230022C0
:104AD000214600F0AAF8002813D10723002221461E
:104AE000284600F0A2F800280BD10F23002221460F
:104AF000284600F09AF8002803D1012085F83D00EF
:104B0000002070BD10B5044600F08CF8002814D1C8
:104B10000A20FCF77BFA4FF47A712046FFF796FFE4
:104B200000280AD10321204600F003F9002804D10F
:104B30002046BDE81040FFF7C5BF10BD70B5154653
:104B40000E4604001DD0002E1BD05421FBF751FB54
:104B50002660257705F5C0602062803805F5E065A0
:104B6000C4E9090500200821E060C4E904012076B9
:104B700084F8350084F8360084F83D00032084F87A
:104B80003C0070BD70B50D460068516A01261446A0
:104B9000814206D12868E0626868206384F8346046
:104BA00070BDA16A81420BD1287884F83500FCF7EA
:104BB0008BFBA06328780028F2D184F8366070BDA2
:104BC000217F01F5C0718142F9D1A978288861F36C
:104BD0001F40E97840EA016001B205140846FBF77E
:104BE000DBFB064E3146FBF799FB20642846FBF7BA
:104BF000D3FB3146FBF792FB606470BD000020419F
:104C000008B568B102685AB18DF80010017F8DF8BF
:104C10000110006802236A46002101F0F1FE08BD80
:104C2000062008BD0121FFF7EBBF7CB516460D46F7
:104C3000040024D0206810B32B208DF800008DF8DC
:104C40000150280A8DF802008DF80430180A8DF8FA
:104C5000050000208DF806008DF803608DF8070030
:104C600008236A46216A206801F0CAFE002805D19F
:104C7000C82332462946204601F0D4FE7CBD0620DA
:104C80007CBD7CB516460D46040025D0206818B3BF
:104C900023208DF800008DF80150280A8DF80200BD
:104CA0008DF80430180A8DF80500180C8DF80600F0
:104CB000180E8DF803608DF8070008236A46216AF4
:104CC000206801F09DFE002805D1C8233246294600
:104CD000204601F0A7FE7CBD06207CBD7CB51646B3
:104CE0000D46040023D0206808B32F208DF8000063
:104CF0008DF80150280A8DF802008DF8043000204C
:104D00008DF805008DF806008DF803608DF807001A
:104D100008236A46216A206801F072FE002805D146
:104D2000C82332462946204601F07CFE7CBD062081
:104D30007CBD70B50C460B460546002246F260016C
:104D4000FFF7CCFF002801D185F83C4070BD090772
:104D5000090E002804DB00F1E02080F80014704701
:104D600000F00F0000F1E02080F8141D704702E011
:104D700008C8121F08C1002AFAD1704770470020E6
:104D800001E001C1121F002AFBD1704770B58AB043
:104D9000012500240895CDE905454BF2200000903F
:104DA0004EF220000190079443F2200002900E265C
:104DB0004FF441500996CDE9030469461048FBF7CA
:104DC00051FC05954BF24000CDE906540090089542
:104DD0004EF24000CDE90104099669460848CDE944
:104DE0000345FBF73FFC0648FBF75EFF0221044842
:104DF000FBF7BEFB10210248FBF7BAFB0AB070BDFF
:104E0000B800002008B5FCF75FFBFEF70BFBFDF7D1
:104E100057FF4348416941F0010141614069002267
:104E200000F00100009005210E20FCF7B9FB0E20D8
:104E3000FCF7A8FB002205210F20FCF7B1FB0F2097
:104E4000FCF7A0FB384837494FF4E13600240160F5
:104E5000C0E901640C25C460C0E904458461C461F3
:104E6000FDF70CFD08B172B6FEE731482F4901602D
:104E70003049C0E901144FF48041C0E90341446165
:104E80008461C4610462FCF725FA08B172B6FEE7DA
:104E90002548294948300160C0E90164C460C0E97F
:104EA00004458461C461FDF7E9FC08B172B6FEE710
:104EB0001D48224990300160C0E90164C460C0E926
:104EC00004458461C461FDF7D9FC08B172B6FEE700
:104ED000FDF7D6FEFDF764FFFDF798FFFDF7CAFF6B
:104EE000FDF7FCFFFFF752FFFEF702FA4FF4807266
:104EF00013490D48FDF748FB11485C38006801680C
:104F000021F00401016000F023F80E4A00210E4850
:104F100000F04CF80D49086000F02CF8FEE70000A6
:104F200000100240003801405402002000540040AC
:104F3000E0000020A086010000440040004800403E
:104F4000880300207C6A00089559000800000020B2
:104F5000EFF3058010B16FF0050070470448016859
:104F600011B14FF0FF307047012101600020704700
:104F70007000002010B5EFF3058010B16FF0050050
:104F800010BD08480168012902D04FF0FF3010BD64
:104F9000054A002182F8141D0221016000F0DCFFA7
:104FA000002010BD700000200BE000E02DE9FF4163
:104FB0004FEA01034FF00005EFF30581039549BB6C
:104FC00040B38027182100244AB3166806B134463E
:104FD00096691EB13146761E382E02D21679F60732
:104FE00003D0002004B0BDE8F081566906B1B708CF
:104FF000D2F808C0BCF1000F0DD0D5685C2D18D3D5
:1050000012693AB136B18DE806103A46214601F0F0
:1050100016FB03900DE0D6685EB912694AB903AA7F
:10502000CDE90012BAB2214601F0DCFA012800D025
:1050300003950398D6E7000070B5124D16004FF0A7
:105040005A022A706870AE704FF0030405D021B187
:10505000E81C3246FBF7B4F8F41C4FF6FF72214609
:105060000848FBF76FFA2855621C000AA854A21CD6
:10507000A520A854E21CBDE8704002490248FDF793
:1050800041BD0000F4090020540200202DE9F04148
:10509000134C0F460546E6682068001D00F07AFDB7
:1050A000681C07D137B12168BDE8F0410D48091DE2
:1050B00000F0C0BD20683544B5424560216805D286
:1050C000A06BBDE8F041091D00F09CBD606B091D9F
:1050D00000F098FDA06A854200D2A562BDE8F0818B
:1050E00020000020001000202DE9F041054600F0CE
:1050F000ADFD2D4CA068401CA06020682B4F10B166
:10510000606930B32BE02560A068012827D1002614
:1051100006EB860007EB800000F066FD761C382E5B
:10512000F6D3234800F060FD2148143000F05CFD08
:105130001F48283000F058FD1D483C3000F054FD59
:105140001B48503000F050FD194860631430A063D4
:1051500005E02068E96AC06A884200D82560606A74
:10516000401C60626864E86A2169884200D9206155
:1051700000EB800007EB8000291D00F05BFD00F0D4
:1051800085FD606900280CD02068E96AC06A884201
:1051900007D208494FF080500860BFF34F8FBFF32C
:1051A0006F8FBDE8F081000020000020500B002030
:1051B000B00F002004ED00E038B500F047FD104CC2
:1051C0002068C8B90F4800F00FFD0E48143000F0F9
:1051D0000BFD0C48E060143020610A4B0020F03BCE
:1051E000009003F1500210210A2000F09DFF206082
:1051F00010B105A100F0CCFDBDE8384000F046BD7F
:105200005C00002004110020546D72510000000069
:1052100030B4026C0B46002A0BD0C1681144C16047
:105220008468A14201D30168C16030BC1846FAF716
:10523000C7BF30BC70472DE9F041856B1746044667
:105240000026026C82B1C7B1E068FAF7B9FFE168E5
:10525000206C091AE1602268914202D2A168081A02
:10526000E060022F16D017E02068A8B9A06801F00E
:1052700089FA06460020A0600EE06068FAF7A0FFF9
:10528000216C606808446060A168884204D320688B
:10529000606001E005B16D1E6D1CA5633046BDE880
:1052A000F08110B5044690F8590058B101280CD08F
:1052B00002280FD0502080F31188BFF34F8FBFF327
:1052C0006F8FFEE7206B00F0F5FC2046BDE8104034
:1052D00000F0F0BC10BD000010484FF440614207E0
:1052E00006D0C01D0D4920F00700411AC1F54061EC
:1052F0000B4A00230144C2E900030839183A21F09F
:10530000070111604B600B600B1AC0E9001393603A
:105310004FF000405360506170470000E4170020D8
:105320008C000020144E154CA6F29C474FF080587C
:10533000DFF84C9012E000BF00F088FCF068C56810
:10534000281D00F027FCA068401EA0606068401E79
:10535000606000F09BFC2846FFF7A3FF6068002810
:10536000EAD138680128F9D9C9F80080BFF34F8F16
:10537000BFF36F8FF2E70000EC0F00202000002049
:1053800004ED00E070B51D46049C51B1C4F8002046
:10539000C4E90F010121204600F0FAFE84F84C50C8
:1053A00070BD2460F4E700002DE9F05F8846DDE978
:1053B0000B941546834691009A460A9EA522206BBF
:1053C000FAF710FF6FF00301206B01EB8501084431
:1053D00020F00707780707D0502080F31188BFF32B
:1053E0004F8FBFF36F8FFEE70025B8F1000F0FD08E
:1053F0005FF00000221818F8001082F8341018F836
:10540000001011B1401C1028F4D384F8435001E07F
:1054100084F83450382E00D33726E662C4E9136589
:10542000201D00F0ECFB04F1180000F0E8FB246103
:10543000C6F138006462A061656584F85850524630
:105440005946384600F05AFA2060B9F1000F01D0F1
:10545000C9F80040BDE8F09F30B5114900E01146A1
:105460000A688242FBD34B685C18844203D14068CF
:1054700018444860084643681C18944209D1084CF7
:10548000183C2468A24209D052681A4442600A6853
:1054900012680260814200D0086030BD0460F9E704
:1054A0008C00002070B5002441600B4D00619142DA
:1054B00006D8D11A8269914206D2011D286907E0F7
:1054C0009A4203D2994201D3012403E0011DE86806
:1054D00000F098FB204670BD5C00002010B504462B
:1054E00000F0B4FBA06B28B15FF0000400F0CEFB2D
:1054F000204610BD0124F9E730B589B03C4D6EE07F
:105500000498002806DADDE90601059A9047049818
:10551000002864DB069C606910B1201D00F03AFB96
:1055200003A800F0D7F8024604980A2857D2DFE80B
:1055300000F00505052D334A05052D3394F82800A4
:1055400040F0010084F828000599A069059B0144FA
:105550002046FFF7A7FF68B3216A2046884794F8E2
:10556000280040073BD5002000900598A169002342
:1055700042181946204601F00FFAD8B9502080F39E
:105580001188BFF34F8FBFF36F8FFEE714F8280F1A
:1055900020F00100207022E094F8280040F0010083
:1055A00084F828000598A06128B181181346204688
:1055B000FFF778FF13E0502080F31188BFF34F8F7F
:1055C000BFF36F8FFEE794F82800810703D42046CD
:1055D00000F070FB03E020F0010084F828000022B6
:1055E00004A9286800F028FF002889D109B030BD3F
:1055F0005C0000202DE9FC410F46054600F0F0FC60
:1056000001A800F067F80446019818B101F032F9DA
:10561000BDE8FC81254EAFB130690068D0B30027EA
:10562000291B3A46306800F0C7FB01F023F9002837
:10563000EED11F494FF080500860BFF34F8FBFF38A
:105640006F8FE5E7A542EBD801F014F9F068274623
:10565000C068C468201D00F09DFA94F82800410736
:1056600019D5A0692B4641193A462046FFF71AFF83
:10567000A8B100200346014600902A46204601F0CA
:105680008BF960B9502080F31188BFF34F8FBFF3BF
:105690006F8FFEE707E020F0010084F82800216A00
:1056A00020468847B4E70127BAE700005C000020E5
:1056B00004ED00E00648416B096829B1416BC968F7
:1056C000C9684968816270474FF0FF31FAE700000E
:1056D0002000002070B5054600F0EAFF064E0446A3
:1056E000B068844203D200F009F8012000E00020F5
:1056F00028602046B46070BD5C000020F8B5194DEC
:1057000020E0C068C4680668201D00F043FA216AE2
:105710002046884794F82800400713D5A0693044F4
:10572000B04206D924616060211DE86800F06AFA81
:1057300008E000200346014600903246204601F072
:105740002BF938B1E86801680029DAD12969C5E97F
:105750000310F8BD502080F31188BFF34F8FBFF3C3
:105760006F8FFEE75C00002008484068401C4FF047
:10577000500080F3118804D0BFF34F8FBFF36F8FB9
:10578000FEE7BFF34F8FBFF36F8FFEE7940000205B
:10579000074CE068016841B1C0680021D0F8000002
:1057A000FFF728FFFFF7A8FEF3E701210020F7E746
:1057B0005C0000202DE9F041044600F047FA94F91E
:1057C000455004F1240609E0606A48B1304601F012
:1057D00019F808B100F086FB6D1E6DB2002DF3DCE8
:1057E0004FF0FF3684F8456000F050FA00F02EFAD2
:1057F00094F9445004F1100709E0206948B1384693
:1058000001F000F808B100F06DFB6D1E6DB2002DC7
:10581000F3DC84F84460BDE8F04100F037BA0000E2
:105820002DE9F0410546002700F0DAFB324E3068E2
:1058300008B9FFF751FD706905424ED1C5B308356F
:1058400068070ED005F00700C0F10800054468079E
:1058500007D0502080F31188BFF34F8FBFF36F8FB5
:10586000FEE72DB37068854237D8234818300146CB
:105870000C6801E020460C466168A94202D221680A
:105880000029F7D131688C4227D007682168016070
:1058900060680837411B10290FD96019420708D0EA
:1058A000502080F31188BFF34F8FBFF36F8FFEE757
:1058B00013E041606560FFF7CFFD61687068401AD2
:1058C0007060B268904200D2B060706901430020FD
:1058D000C4E90001F068401CF06000F0CBFF7807DD
:1058E00007D0502080F31188BFF34F8FBFF36F8F25
:1058F000FEE73846BDE8F0817400002010B5031FB4
:105900004FF080741C601B1F21F001011960191FEA
:10591000024B0B60143940380A6010BD695700080B
:1059200070B50546FAF7A5FD044601462846FAF784
:10593000BDFC15F0004F4FF07F410ED0B0F13F4F4E
:1059400028BFB1EB400F0ED2B0F17C5F1DDDB1EB93
:10595000400F1AD313E0044617E0B0F13F4F08D9C7
:10596000B1EB400F05D34FF07E512046FAF79EFC75
:10597000F1E7B0F17C5F08DBB1EB400F05D34FF0EE
:105980007E512046FAF740FCE5E7284664F31E0006
:1059900070BD000088B0FDF711FD794D79497A4856
:1059A0002A7EFFF7CBF878486A7E76495430FFF7B5
:1059B000C5F84FF47A7000F021FA7348FFF7A2F8A7
:1059C000714C84F83E0004F15400FFF79BF804F199
:1059D000540686F83E0094F83E0018B9C8212046C7
:1059E000FFF73AF896F83E00B24620B96648C8215B
:1059F0005430FFF731F8D5E900016A69FDF73EF947
:105A0000022700F055FE0026B0463546A146C346A3
:105A1000069024E0012F09D0022F20D0002799E022
:105A2000206808B1012795E0022793E099F83E101D
:105A300039B9032246F2FF015348D9F85030FFF735
:105A400020F99AF83E10002908D14F48032246F267
:105A5000FF015430DAF85030FFF713F97AE099F883
:105A60003E004C4658BB9AF83E0040BB474B1A1FBD
:105A7000A2F1100081684068FDF784F843480322D2
:105A80001438008A81B241481438808A404241EA81
:105A9000004346F2FF013C48FFF7F3F83B493B481F
:105AA00014391438898A008A494289B241EA00438C
:105AB0003548032246F2FF015430FFF7E2F894F82C
:105AC0003E00A14678B11436B6F5FA6F0CD3002625
:105AD0002D48FFF717F889F83E0028B9C8212A4851
