:020000040800F2
:10000000A0FC00203103000879910008515D000830
:10001000759100089D18000805CE0008000000003A
:100020000000000000000000000000007102000855
:100030008D22000800000000CD020008079B000888
:100040004B0300084B0300084B0300084B03000858
:100050004B0300084B0300088F2200084B030008E5
:100060004B03000899220008A32200084B03000854
:10007000ED1E00084B0300084B0300084B0300086B
:100080004B0300084B0300084B030008C11800088D
:10009000A1180008B11800084B030008AD220008A1
:1000A0004B0300084B0300084B0300084B030008F8
:1000B0004B0300084B0300084B0300084B030008E8
:1000C0004B0300084B0300084B0300084B030008D8
:1000D0004B03000865A400084B0300084B0300080D
:1000E0004B0300084B0300084B0300084B030008B8
:1000F0004B0300084B0300084B0300084B030008A8
:100100004B0300084B0300084B0300084B03000897
:100110004B0300084B0300084B0300084B03000887
:100120004B0300084B030008F11E0008F51E0008F1
:100130004B0300084B0300084B030008F1180008AC
:10014000D1180008E11800084B0300089593000837
:100150004B0300084B0300084B03000875A400087C
:100160004B0300084B0300084B0300084B03000837
:100170004B0300084B0300084B030008000000007D
:100180004B0300084B03000800F002F800F060F891
:100190000AA090E8000C82448344AAF10107DA45E2
:1001A00001D100F055F8AFF2090EBAE80F0013F0D4
:1001B000010F18BFFB1A43F001031847041901008F
:1001C000241901000A444FF0000C10F8013B13F011
:1001D000070408BF10F8014B1D1108BF10F8015BA0
:1001E000641E05D010F8016B641E01F8016BF9D193
:1001F00013F0080F1EBF10F8014BAD1C0C1B09D1EA
:100200006D1E58BF01F801CBFAD505E014F8016B5B
:1002100001F8016B6D1EF9D59142D6D370470000ED
:100220000023002400250026103A28BF78C1FBD8FF
:10023000520728BF30C148BF0B6070471FB510F090
:1002400033FD9DE8030000F045FF1FBD10B510BD54
:1002500000F0D2FF1146FFF7F1FF0EF077FB00F040
:10026000F0FF03B4FFF7F2FF03BC01F021F8000038
:100270002C4B19680868B0E8F04F80F30988BFF389
:100280006F8F4FF0000080F311887047000000006E
:1002900008480068006880F308884FF0000080F389
:1002A000148862B661B6BFF34F8FBFF36F8F00DF64
:1002B00000BF00BF08ED00E0DFF80C00016841F46A
:1002C00070010160704700BF88ED00E0EFF3098026
:1002D000BFF36F8F134B1A681EF0100F08BF20ED8D
:1002E000108A20E9F04F106009B44FF0500080F3FD
:1002F0001188BFF34F8FBFF36F8F0FF0F5FC4FF0F6
:10030000000080F3118809BC19680868B0E8F04F54
:100310001EF0100F08BFB0EC108A80F30988BFF3FD
:100320006F8F704730000020EFF3058070470000AA
:100330000948804709480047FEE7FEE7FEE7FEE779
:10034000FEE7FEE7FEE7FEE7FEE7FEE704480549B5
:10035000054A064B70470000D19B00088901000840
:10036000A0E40020A0FC0020A0F60020A0F60020C1
:10037000DFED300AB5EEC00A60EE200ABDEEE01AED
:1003800011EE100AF1EE10FA38BF401E00EE100A0E
:100390009FED291AB8EEC00A70EEC00A20EE810A5D
:1003A000BCEEC00A10EE100A00EE100A0028B8EEEB
:1003B000C00A10EE810AB8BF002004DBB0F5807FD0
:1003C000C8BF4FF480701D4960EE000AB6EE001AF7
:1003D000DFED1C2A9FED1A2A60EE011A60EE225A08
:1003E00020EE813A20EE022A21EEA01A01EB8000D5
:1003F00073EE655A62EE202AB7EE006A33EE003AD9
:10040000D0EC043A76EE611A71EE600A35EEE20A3B
:1004100033EE413A32EEC21A70EEA10A20EE230A00
:1004200064EE831A04EE200A45EE011A31EE800ACA
:100430007047000083F9223E000080434C11010800
:10044000ABAA2A3EABAAAA3EDFED300AB5EEC00A3F
:1004500060EE200ABDEEE01A11EE100AF1EE10FA7D
:1004600038BF401E00EE100A9FED291AB8EEC00AF0
:1004700070EEC00A20EE810ABCEEC00A10EE100A2F
:1004800000EE100A0028B8EEC00A10EE810AB8BFCC
:10049000002004DBB0F5807FC8BF4FF480701D4999
:1004A00060EE000AB6EE001ADFED1C2A9FED1A2A54
:1004B00060EE011A60EE225A20EE813A20EE022A06
:1004C00021EEA01A01EB800073EE655A62EE202A3D
:1004D000B7EE006A33EE003AD0EC043A76EE611AD9
:1004E00071EE600A35EEE20A33EE413A32EEC21A9C
:1004F00070EEA10A20EE230A64EE831A04EE200AAD
:1005000045EE011A31EE800A7047000083F9223E61
:10051000000080435C150108ABAA2A3EABAAAA3EA4
:1005200070B405880E884468D1F804C05368B54299
:1005300008D140884988884201BF11888D4251887E
:10054000884203D070BC6FF00200704705FB00F1D9
:10055000880825D094ED001ADCED000A94ED010A1C
:10056000D4ED021A71EE200A9CED011A30EE011A48
:100570009CED020AC3ED000A83ED011AD4ED030AD3
:100580009CED031A31EE800A103470EE810A83ED7F
:10059000020A0CF1100CC3ED030A1033401ED9D12E
:1005A00001F00300B0F1004F0BD300BFB4EC010A1F
:1005B000401EFCEC010A30EE200AA3EC010AF5D142
:1005C0002BE0002829DD211F1B1FACF1040210F0D5
:1005D000010F0AD0091D121D91ED000AD2ED000A8B
:1005E0001B1D30EE200A83ED000A400815D000BF25
:1005F00091ED010AD2ED010A0831083230EE200AED
:1006000083ED010A91ED000AD2ED000A0833401E85
:1006100030EE200A83ED000AEAD170BC002070475A
:1006200001804280436070472DE9F04F87B04268F7
:1006300000924A680192B0F800E045889FEDFE0AFA
:1006400000200390AE4506D108884988884204BF3F
:100650007146864504D007B06FF00200BDE8F08F08
:1006600010465FEA010C1CBF9FEDF41AF0EE400A41
:1006700042D000BFAEEB0C01B1F1004F05D300BF7B
:10068000E0EC010A491EFBD113E0002911DD021F35
:1006900011F0010F1CBF121DC2ED000A4B1006D055
:1006A000C2ED010A08325B1EC2ED000AF8D100EB70
:1006B0008100ACF10101A0EC011AB1F1004F04D3AB
:1006C000E0EC010A491EFBD113E0002911DD021FF5
:1006D00011F0010F1CBF121DC2ED000A4B1006D015
:1006E000C2ED010A08325B1EC2ED000AF8D100EB30
:1006F0008100BCF1010CBDD14FF0000A0295002D24
:1007000008BF002000F006824FEA5E0006900EFB54
:1007100005F00590401BF0EE401A049000990AFB8A
:1007200005F001EB8004019A94ED000A02EB8000D1
:10073000012621460346F0EE610ABEF1000F5BD0B0
:10074000A4EB85021EF0010F18D002EB850292ED9A
:10075000001AB5EEC01AF1EE10FA08DDB4EEE01A98
:10076000F1EE10FA0ADD00BFF0EE410A06E0B1EE4C
:10077000411AF4EEC10AF1EE10FAF5D3DDF818C013
:10078000BCF1000F33D000BF02EB850797ED001AD4
:10079000B5EEC01AF1EE10FA05DDB4EEE01AF1EE96
:1007A00010FA09DD06E0B1EE411AF4EEC10AF1EEED
:1007B00010FA01D2F0EE410A02EBC50292ED001AE6
:1007C000B5EEC01AF1EE10FA05DDB4EEE01AF1EE66
:1007D00010FA09DD06E0B1EE411AF4EEC10AF1EEBD
:1007E00010FA01D2F0EE410ABCF1010CCCD1049A0E
:1007F00001EB850C0CEB8204F5EEC00AF1EE10FA69
:1008000000F08081B5EEC00A059AF1EE10FAA4EB73
:10081000820CD4BFB1EE401AB0EE401AB4EE601AAA
:10082000F1EE10FA5CD0AEEB0A02571E58D005FB71
:100830000AF20CEB820292ED002A00BFB0EE421ADF
:1008400005FB06F4B5EEC01A00EB8404F1EE10FAD5
:10085000D8BFB1EE411AB4EE601AF1EE10FA3CD1F5
:10086000A5EB0A06B6F1004F0BD300BF92ED000ACC
:10087000DCED000A761EE2EC010AACEC010AF5D1CF
:100880000CE0002E0ADD00BF92ED000ADCED000A4C
:10089000761EE2EC010AACEC010AF5D12A46B5F16C
:1008A000004F0AD394ED000AD0ED000A521EE4EC8A
:1008B000010AA0EC010AF5D10CE0002A0ADD00BF14
:1008C00094ED000AD0ED000A521EE4EC010AA0ECFF
:1008D000010AF5D1012003900AE0761C7F1EADD1FC
:1008E0000398012804D0B5EEC00AF1EE10FA7CD0CE
:1008F000A5EB0A0091ED000A8B4699460746B0F138
:10090000004F08D3D1ED000A401E80EE801AA1EC02
:10091000011AF7D11FE000281DDDABF1040110F032
:10092000010F06D0F0EE400A80EEA01A81ED011A08
:10093000091D78100FD000BFD1ED010A80EE801A9A
:1009400081ED011AD1ED020A80EE801A81ED021AC2
:100950000831401EF0D12846B5F1004F09D300BF41
:10096000D3ED000A401E80EE801AA3EC011AF7D1E5
:100970001FE000281DDDA9F1040110F0010F06D0D1
:10098000D1ED010A80EE801A81ED011A091D68106F
:100990000FD000BF91ED011AC1EE000AC1ED010AAE
:1009A000D1ED020A80EE801A81ED021A0831401E54
:1009B000F0D1DDE900124FF000085FEA0E067CD0AE
:1009C000D04504BF01EB870102EB850258D091EDC1
:1009D000000ADC4648463B46B7F1004F0DD300BF46
:1009E000D1ED000ABCEC011A00E08BE040EE410AB8
:1009F0005B1EE1EC010AF3D133E0002F31DD0B1F68
:100A0000ABF1040C17F0010F0CD00CF1040CF0EE5C
:100A1000400A9CED002AB0EE601A00EEC21A83ED87
:100A2000011A1B1D7C101AD0D3ED010A9CED011A8E
:100A300040EE410A04E00000000000000000803F9A
:100A4000C3ED010A0CF1080C93ED021ADCED000A6B
:100A500000EE601A83ED021A0833641EE4D101EB44
:100A600087012B46B5F1004F0BD300BFF0EC010A14
:100A700092ED001A5B1E00EE601AA2EC011AF5D18D
:100A80002FE0002B2DDDA2F1040CA9F1040013F0DE
:100A9000010F0AD0001DDCED010A90ED001A40EEB6
:100AA000410ACCED010A0CF1040C5C1017D000BF18
:100AB0009CED011AD0ED010A00E019E000EE601A89
:100AC0000830641E8CED011ADCED020A90ED001A6C
:100AD00040EE410ACCED020A0CF1080CE8D102EB21
:100AE000850201EB8A01761E08F101087FF468AFE8
:100AF00000980AF1010A001D00900298401E029021
:100B00007FF40CAE03990020012904BF07B0BDE8B3
:100B1000F08F00BFB5EEC00AF1EE10FA08BF6FF01B
:100B2000040007B0BDE8F08F2DE9F04F4468B0F83D
:100B3000009045880888B1F802C0D2F804A04FF0B0
:100B4000000B854204BF1388994507D1528894450C
:100B500004BF9FED322A4FEA950E03D06FF00200DA
:100B6000BDE8F08FD1F804000AEB8B086646002739
:100B7000B0EE420A23465FEA0E0224D090ED001A3E
:100B8000D3ED001A00EB8C00D3ED010A01EE810ACF
:100B900090ED001A00EB8C00D3ED021A00EE810AF2
:100BA00090ED001A00EB8C00D3ED030A1033521EB7
:100BB00001EE810A90ED001A120400EB8C00120C79
:100BC00000EE810ADAD115F003020BD0F3EC010A32
:100BD00090ED001A521E120400EB8C0000EE810A08
:100BE000120CF3D1781CA8EC010A87B24868721E77
:100BF000160400EB8700360CBAD10BEB0C001FFA81
:100C000080FBA9F101001FFA80F904EB8504B9F11A
:100C1000000FA7D10020BDE8F08F00000000000009
:100C200070B405880E884468D1F804C05368B54292
:100C300008D140884988884201BF11888D42518877
:100C4000884203D070BC6FF00200704705FB00F1D2
:100C5000880825D094ED001ADCED000A94ED010A15
:100C6000D4ED021A71EE600A9CED011A30EE411AC1
:100C70009CED020AC3ED000A83ED011AD4ED030ACC
:100C80009CED031A31EEC00A103470EEC10A83EDF8
:100C9000020A0CF1100CC3ED030A1033401ED9D127
:100CA00001F00300B0F1004F0BD300BFB4EC010A18
:100CB000401EFCEC010A30EE600AA3EC010AF5D1FB
:100CC0002BE0002829DD211F1B1FACF1040210F0CE
:100CD000010F0AD0091D121D91ED000AD2ED000A84
:100CE0001B1D30EE600A83ED000A400815D000BFDE
:100CF00091ED010AD2ED010A0831083230EE600AA6
:100D000083ED010A91ED000AD2ED000A0833401E7E
:100D100030EE600A83ED000AEAD170BC0020704713
:100D2000F0B4038842684488488800264D689C4691
:100D3000834205BF09888C426FF00200A7081CBFE0
:100D4000F0BC7047380005EB86011BD0B2EC010AFD
:100D5000401E0004000C81ED000A01EB8301B2EC9F
:100D6000010A81ED000A01EB8301B2EC010A81ED79
:100D7000000A01EB8301B2EC010A81ED000A01EBEC
:100D80008301E3D114F003000AD000BFB2EC010AE2
:100D9000401E0004000C81ED000A01EB8301F5D137
:100DA000701C86B2ACF101001FFA80FCBCF1000F90
:100DB000C8D1F0BC0020704770B5064600F06EF94F
:100DC000056806F10B0020F00704B4429CBF002028
:100DD00070BD2B466A68BAB11068A04210D304F106
:100DE000080188423CBF5068586007D35168101909
:100DF00041601168091B016058601460101D70BDCE
:100E000013465268002AE7D12146284600F04EF9E1
:100E10000028DED170BD53EA020C00F069802DE994
:100E2000F04B4FF00006002B1FBFB3FA83F503FA17
:100E300005F424FA05F65E4012BF1643B2FA82F5B5
:100E400002FA05F4C5F120051EBF22FA05FC44EAAA
:100E50000C04203556EA044C4FEA144418BF641CB5
:100E60004FF000084FF00009904271EB030C39D3AA
:100E7000002919BFB1FA81F701FA07F6B0FA80F735
:100E800000FA07F6C7F120071EBF20FA07FC46EA62
:100E90000C062037B6FBF4FCA7EB0507103F07F064
:100EA0001F0BCBF120060CFA0BFB2CFA06F644BF05
:100EB000B3460026202FA4BF5E464FF0000B5BEA2E
:100EC000060C08BF4FF0010B19EB0B09ABFB027CC2
:100ED00048EB0608C01B06FB02CC0BFB03CC71EBF6
:100EE0000C01C1E70B46024641464846BDE8F08B7F
:100EF00013B54FF000004FF00001AFF30080BDE8E4
:100F00001C407047032A40F2308010F0030C00F0C0
:100F1000158011F8013BBCF1020F624498BF11F833
:100F200001CB00F8013B38BF11F8013BA2F10402EC
:100F300098BF00F801CB38BF00F8013B11F0030364
:100F400000F02580083AC0F0088051F8043B083AC8
:100F500051F804CBA0E80810F5E7121D5CBF51F86A
:100F6000043B40F8043BAFF30080D20724BF11F8E4
:100F7000013B11F801CB48BF11F8012B24BF00F849
:100F8000013B00F801CB48BF00F8012B704710B5BA
:100F9000203AC0F00B80B1E81850203AA0E8185071
:100FA000B1E81850A0E81850BFF4F5AF5FEA027C32
:100FB00024BFB1E81850A0E8185044BF18C918C0A1
:100FC000BDE810405FEA827C24BF51F8043B40F842
:100FD000043B08BF7047D20728BF31F8023B48BF27
:100FE00011F8012B28BF20F8023B48BF00F8012B65
:100FF000704702F0FF0343EA032242EA024200F094
:1010000002B84FF000020429C0F0128010F0030C67
:1010100000F01B80CCF1040CBCF1020F18BF00F8EB
:10102000012BA8BF20F8022BA1EB0C0100F00DB89A
:101030005FEAC17C24BF00F8012B00F8012B48BFF8
:1010400000F8012B70474FF0000200B5134694469C
:101050009646203922BFA0E80C50A0E80C50B1F110
:101060002001BFF4F7AF090728BFA0E80C5048BF24
:101070000CC05DF804EB890028BF40F8042B08BFC2
:10108000704748BF20F8022B11F0804F18BF00F8BE
:10109000012B704770477047704700000048704749
:1010A00048E40020704770477047704738B50446E1
:1010B0000A4600206946AFF30080002808BF38BD0B
:1010C00002460099204600F075F8012038BD012045
:1010D00000F08AB8F8B5AFF30080054600200C4652
:1010E000102000BF0646A819A0420DD93246694615
:1010F0000020AFF30080070008BF00F075F80098EB
:10110000A04218BF0546C419FFF7C8FF056007468F
:10111000F01D20F007004619284600F00AF8B442F6
:1011200008BFF8BDA21B31463868BDE8F84000F0A2
:1011300041B800210160C0E90110704710207047DC
:1011400070B50446051FFFF7A9FF0068002C14BF07
:10115000446870BD002C18BFAC423CBF2046646898
:10116000F8D301680A18AA4218BF456003D12A685B
:1011700005461144016028684119A1421CBF6C60FA
:1011800070BD6168696021680844286070BD10B551
:1011900000F00CF8006810BD10B5044600F006F829
:1011A000046010BD0048704740E4002000487047CC
:1011B00040E40020034640688C46002818BF88425F
:1011C0003CBF03464068F8D318681844884207D0EB
:1011D0000CF1030020F00700001D411A521A0146CD
:1011E000081D0A60FFF7ACBF10B500F039F8BDE884
:1011F000104000F02FB870477546FFF7D3FFAE469A
:1012000005006946534620F00700854618B020B512
:10121000FFF79CF8BDE820404FF000064FF00007B4
:101220004FF000084FF0000B21F00701AC46ACE88E
:10123000C009ACE8C009ACE8C009ACE8C0098D46FB
:10124000704710B50446AFF300802046BDE810405B
:10125000FFF707B8002801D000F02AB87047000057
:1012600010B5012805D0002103A000F027F80120C7
:1012700010BD09A1F8E7000053494752544D454DB0
:101280003A204F7574206F662068656170206D6527
:101290006D6F7279000000003A2048656170206D22
:1012A000656D6F727920636F72727570746564001A
:1012B00001491820ABBEFEE72600020070B50546C6
:1012C0000C460A2000E06D1C00F011F835B12878BA
:1012D0000028F8D102E0641C00F009F814B120786D
:1012E0000028F8D1BDE870400A20AFF3008008B5AF
:1012F00069468DF800000320ABBE08BD10B5012281
:101300001021024801F0CAFF10BD00000000024099
:1013100010B500221021024801F0C0FF10BD0000EE
:101320000000024010B501221146024801F0B6FF4C
:1013300010BD00000004024010B500220121024847
:1013400001F0ACFF10BD00000004024010B50446DF
:10135000FFF7DEFF922000F0A5F906229549122042
:1013600000F080F9FFF7CAFF92484078000200B20F
:10137000904909780843904908800846B0F9000070
:1013800000EE100AB8EEC00A8C48D0ED000A20EE3C
:10139000200AD4ED080A20EE200A84ED000A8548D0
:1013A000C078000200B283498978084382490880E6
:1013B0000846B0F9000000EE100AB8EEC00A7F48F7
:1013C000D0ED000A20EE200AD4ED080A20EE200A13
:1013D00084ED010A77484079000200B27549097925
:1013E0000843754908800846B0F9000000EE100A6D
:1013F000B8EEC00A7148D0ED000A20EE200AD4ED04
:10140000080A20EE200A84ED020AFFF795FF082261
:101410006849002000F026F9FFF784FF654800784E
:101420000F284FD166480078F0B36248C0780002B8
:1014300000B26049897808435F49088094ED090A41
:101440000846B0F9000000EE900AF8EEE00A5D48A8
:1014500090ED001A10EE810A84ED030A5548407998
:10146000000200B25349097908435349088094EDBA
:101470000A0A0846B0F9000000EE900AF8EEE00A09
:10148000504890ED001A10EE810A84ED040A494894
:10149000C079000200B2474989790843464908806B
:1014A00094ED0B0A084600E00DE0B0F9000000EEF4
:1014B000900AF8EEE00A434890ED001A10EE810A17
:1014C00084ED050A44E03B48C078000200B2394987
:1014D00089780843384908800846B0F9000000EED2
:1014E000100AB8EEC00A3748D0ED000A20EE200AF4
:1014F00084ED030A2F484079000200B22D49097992
:1015000008432D4908800846B0F9000000EE100A93
:10151000B8EEC00A2B48D0ED000A20EE200A84ED78
:10152000040A2448C079000200B22249897908439C
:10153000214908800846B0F9000000EE100AB8EE14
:10154000C00A2048D0ED000A20EE200A84ED050AEA
:10155000FFF7DEFEA22000F0A5F8022215492220A6
:1015600000F080F8FFF7CAFE12480078C000114969
:10157000497840EA6110104908800846B0F9000037
:10158000B0F5806F05DB08460088A0F5006000B26A
:1015900008800948B0F9000000EE100AF8EEC00A11
:1015A000B4EE001AB3EE070A00EE810A84ED070AD2
:1015B00010BD00005A050020620500201C05002017
:1015C0002C0500202005002070B504460D461C485F
:1015D000046000201B4908700CF0AAFC1949097826
:1015E0000843184908700CF059FD1649097808435A
:1015F000144908701DB1144800F0D6F91CE09FEDA5
:10160000130A114880ED090A9FED110A80ED0A0ABC
:101610009FED100A80ED0B0A9FED0F0A80ED0C0A7A
:1016200090ED0C0ADFED0D0A80EE801A80ED081AAD
:101630009FED0B0A80ED060A0248007870BD00009D
:1016400018050020260500208C920020358F7B3A5B
:10165000ADD3453BA0F8EFB98D0C1A41C3F51C4141
:101660000000BC4170B506460C46154646F08000A9
:1016700000F018F806E0552000F014F82070641C03
:10168000681EC5B2002DF6D170BD70B504460D467A
:1016900044F0800000F006F8552000F003F82870B0
:1016A00070BD000001B582B04FF47A70012301AA29
:1016B00002A900900348006803F09AFB9DF804001B
:1016C0000EBD00001805002070B505460C462846E2
:1016D000FFF7E8FF2046FFF7E5FF70BDD2ED020AF5
:1016E00092ED021AB6EE000A00EEC10AD2ED030A2C
:1016F00092ED031A00EEC10AD0ED000A20EE200A96
:10170000D2ED010A92ED021A60EE810A92ED001A02
:10171000D2ED031A41EE610A90ED011A00EE810A42
:10172000D2ED010A92ED031A60EE810A92ED001AE1
:10173000D2ED021A41EE210A90ED021A00EE810A62
:10174000F0EE000A20EE200A81ED000A92ED010A77
:10175000D2ED020A20EE200AD2ED000A92ED031A21
:1017600000EE810AD0ED000A60EE200A92ED011A27
:10177000D2ED011AB6EE000A01EE610AD2ED031AAB
:1017800092ED032AB0EE401A01EEC21AD0ED011A12
:10179000B0EE600A01EE210AD2ED020A92ED031AC0
:1017A00060EE810A92ED001AD2ED011A41EE610A53
:1017B00090ED021A00EE810AF0EE000A20EE200AF7
:1017C00081ED010A92ED010AD2ED030A20EE200A12
:1017D000D2ED000A92ED021A00EEC10AD0ED000A25
:1017E00020EE200AD2ED020A92ED031A60EE810A81
:1017F00092ED001AD2ED011A41EE210A90ED011A84
:1018000000EE810A92ED011AD2ED011AF6EE000AFD
:1018100041EE610A92ED021AD2ED021A41EE610A1E
:1018200090ED021A00EE810AF0EE000A20EE200A86
:1018300081ED020A7047000010B501F0CFFE08F0FC
:101840006DF907F099F807F02BF807F0EBF907F0BE
:1018500043FA07F0C5FA07F0F7FA07F047FB07F07D
:1018600093FB07F003FA07F0A1F907F0BDF906F0C2
:10187000CFFF06F0F1FF07F003FC07F01DFC07F0B7
:1018800037FCA82000F05EFC07F04EFC0CF09EFC3C
:10189000014803F069FD10BD6C0F002000BFFEE79A
:1018A00010B5024801F01BF810BD00009C0C002090
:1018B00010B5024801F013F810BD00009C0C002088
:1018C00010B5024801F00BF810BD00009C0C002080
:1018D00010B5024801F003F810BD0000C40C002050
:1018E00010B5024800F0FBFF10BD0000C40C002042
:1018F00010B5024800F0F3FF10BD0000C40C00203A
:101900000346042B15D007DC7BB1012B0ED0022B34
:101910000DD0032B12D10BE0202B0BD0212B0AD0A2
:10192000222B09D0232B09D107E008E007E006E0CD
:1019300005E004E003E002E001E000E000BF00BFDA
:10194000002070470020704710B500220449054868
:1019500009F033F80449034809F020F8002010BDCD
:1019600044810020687600204479002070B5044648
:101970000D46214607482A68FFF7C4FA054807F0D4
:1019800041FE2146044809F009F8034808F0D2FF57
:10199000002070BD448900206876002010B5034601
:1019A0000C460021084610BD70B52DED048B88B0A3
:1019B000044600200690079000F096FBFE4880ED5C
:1019C000000A00BF00F090FBFB48D0ED000A30EEAB
:1019D000600AF2EE040AB4EEE00AF1EE10FA14DD49
:1019E0009FEDF60A84ED090A9FEDF50A84ED0A0AD7
:1019F0009FEDF40A84ED0B0A9FEDF30A84ED0C0AC7
:101A00009FEDF20A84ED060A57E29FEDF10A00F01D
:101A1000FBFA9FEDF00A84ED0C0A9FEDEE0A84EDCF
:101A2000090A9FEDEC0A84ED0A0A9FEDEA0A84EDAB
:101A30000B0A002673E1FFF76BFC9220FFF732FEE2
:101A4000062206A91220FFF70DFEFFF757FC9DF8AE
:101A50001900000200B29DF8181040EA010500EEDE
:101A6000105AB8EEC00ADC48D0ED000A20EE200A79
:101A700084ED000A9DF81B00000200B29DF81A10C8
:101A800040EA010500EE105AB8EEC00AD248D0ED87
:101A9000000A20EE200A84ED010A9DF81D000002D4
:101AA00000B29DF81C1040EA010500EE105AB8EE95
:101AB000C00AC948D0ED000A20EE200A84ED020ACF
:101AC000D4ED000A60EEA00A94ED011AD4ED011ADB
:101AD00041EE210A94ED021AD4ED021A41EE210AD8
:101AE000B0EE600A0CF0ABF9B0EE408A94ED0C0A4F
:101AF00030EE080A84ED0C0AFFF71EFC082206A946
:101B00000020FFF7AFFDFFF70DFC9DF818000F2830
:101B100050D19DF81B00000200B29DF81A1040EA57
:101B2000010500EE105AB8EEC00AAC48D0ED000A2C
:101B300020EE200A84ED030A94ED090AD4ED030A8D
:101B400030EE200A84ED090A9DF81D00000200B263
:101B50009DF81C1040EA010500EE105AB8EEC00ACC
:101B60009E48D0ED000A20EE200A84ED040A94ED90
:101B70000A0AD4ED040A30EE200A84ED0A0A9DF820
:101B80001F00000200B29DF81E1040EA010500EEA1
:101B9000105AB8EEC00A9148D0ED000A20EE200A93
:101BA00084ED050A94ED0B0AD4ED050A30EE200A07
:101BB00084ED0B0A06BBF0EE488AB0EE489A00208E
:101BC00017E004F10C0101EB800191ED000A03A97B
:101BD00001EB800181ED000A04F10C0101EB8001B1
:101BE00091ED000A694601EB800181ED000A411C7C
:101BF000C8B20328E5DB49E0B4EEE88AF1EE10FA5A
:101C000001DDF0EE488AB4EEC98AF1EE10FA01D295
:101C1000B0EE489A002037E004F10C0101EB80019E
:101C200091ED000A03A901EB8001D1ED000AB4EEA9
:101C3000E00AF1EE10FA0ADD04F10C0101EB80017B
:101C400091ED000A03A901EB800181ED000A04F186
:101C50000C0101EB800191ED000A694601EB800166
:101C6000D1ED000AB4EEE00AF1EE10FA0AD204F166
:101C70000C0101EB800191ED000A694601EB800146
:101C800081ED000A411CC8B20328C5DB38EEC90A41
:101C9000534880ED000A002012E003A901EB800107
:101CA00091ED000A694601EB8001D1ED000A30EEAA
:101CB000600A4C4901EB800181ED000A411CC8B269
:101CC0000328EADB464890ED000AF6EE000AB4EE7F
:101CD000E00AF1EE10FA1BDC424890ED000ADFED5D
:101CE000420AB4EEE00AF1EE10FA11DC90ED010ABE
:101CF000DFED3D0AB4EEE00AF1EE10FA08DC90EDFB
:101D0000020ADFED390AB4EEE00AF1EE10FA00DD66
:101D10000AE09FED360A00F077F9701C86B234486D
:101D200000888642FFF687AE00BFD4ED0C0A30482B
:101D3000008800EE100AB8EE400A80EE801A84EDAA
:101D40000C1A002015E004F1240101EB8001D1ED13
:101D5000000A2749098800EE101AB8EE400A80EE02
:101D6000801A04F1240101EB800181ED001A411C6D
:101D7000C8B20328E7DBFFF7CBFAA220FFF792FCFB
:101D8000022206A92220FFF76DFCFFF7B7FA9DF8A3
:101D90001800C0009DF8191040EA6115B5F5806F74
:101DA00002DBA5F5006005B200EE105AF8EEC00A9D
:101DB000B4EE001A1EE0000054050020358F7B3A77
:101DC000ADD3453BA0F8EFB98D0C1A410000C441DA
:101DD0000AD7A33B000000001C05002020050020BE
:101DE00028050020809200209A99193E6F12033A2C
:101DF00058050020B3EE070A00EE810A84ED060ABA
:101E000034480088401C00B232490880324890EDC6
:101E1000000AF6EE000AB4EEE00AF1EE10FA3FF71F
:101E2000D1AD94ED0C0ADFED2D0A30EE600AB0EE74
:101E3000C00AF6EE000AB4EEE00AF1EE10FAEEDCAB
:101E4000274890ED000A5FED180AB4EEE00AF1EEC3
:101E500010FAE4DC90ED010A5FED1D0AB4EEE00A31
:101E6000F1EE10FADBDC90ED020A5FED210AB4EE30
:101E7000E00AF1EE10FAD2DC94ED090AB0EEC00AE5
:101E8000DFED180AB4EEE00AF1EE10FAC7DC94EDCB
:101E90000A0AB0EEC00ADFED130AB4EEE00AF1EE72
:101EA00010FABCDC94ED0B0AB0EEC00ADFED0D0AAF
:101EB000B4EEE00AF1EE10FAB1DC00BF94ED0C0ACA
:101EC000DFED090A80EE801A84ED081A08B0BDEC37
:101ED000048B70BD2E05002028050020CDCC1C41B0
:101EE000809200200AD7233CC3F51C4100BFFEE7C7
:101EF00000BFFEE700BFFEE7014608781038182350
:101F0000B0FBF3F20848805CC865032A05D908686D
:101F10006FF30900001D886503E008686FF309008E
:101F20008865886D70470000680D01080146002033
:101F30008A6A8B69CBB932B1012A0DD0022A03D04B
:101F4000032A10D10EE000BFCB6A03F08073B3F117
:101F5000807F00D1012007E0CB6AB3F1C07F00D1C0
:101F6000012001E000E000BF34E08B69B3F5005FC1
:101F70001AD132B1012A07D0022A03D0032A11D183
:101F80000AE000BF01200EE0CB6A03F08073B3F1DA
:101F9000807F00D1012006E0CB6AB3F1C07F00D181
:101FA000012000E000BF15E032B1012A05D0022A6D
:101FB00004D0032A0CD103E000BF00BF012008E0D9
:101FC000CB6A03F08073B3F1807F00D1012000E081
:101FD00000BF00BF7047000008B508484068009087
:101FE000074900980968884204D206480068401CE6
:101FF0000449086002490098086008BD001000E02C
:10200000B8000020B40000200C494868F0EE400AF7
:1020100000BF0A494968091A01EE101AF8EE411A80
:10202000074991ED001AB8EE411A20EE811AF4EE3C
:10203000C11AF1EE10FAECD370470000001000E076
:10204000A800002010B52DED028B82B004460E488A
:102050004068019020680199081A00EE100AF8EE15
:10206000400A0A4890ED000AB8EE400A80EE801A55
:10207000B0EE418A01982060FFF7AEFFB0EE480A4B
:1020800002B0BDEC028B10BD001000E0A8000020E3
:1020900070B52DED028B00F089F8114800684FF4FF
:1020A0007A7148430E4CD4E90254421944F10001BC
:1020B00010460EF083FD08EE900A0948D0E904218D
:1020C00010460EF07BFD00EE100ADFED060A40EE32
:1020D000208AB0EE688AB0EE480ABDEC028B70BD73
:1020E000907300206F12833A10B52DED028B00F033
:1020F0005DF81148D0E9022110460EF05FFD00EEB8
:10210000100A0D48D0ED000AF8EE608ADFED0B0AE8
:1021100040EE208AD0E9042110460EF04FFD00EE7B
:10212000100ADFED070A40EE208AB0EE688AB0EEB2
:10213000480ABDEC028B10BD907300206F12833AE9
:10214000BD3786351249096841F08071104A116027
:102150000021104A51601146096841F001011160E7
:102160000D4941430D4A1160114609684FF47A72D6
:10217000B1FBF2F10A4A116008490968064AB1FB4D
:10218000F2F1084A11600021074A1160704700000F
:10219000FCED00E0001000E040420F00A80000202D
:1021A000AC000020B0000020B400002038B52D485D
:1021B00040680090FFF710FF2B4800684FF0FF3198
:1021C000A0FB01300099591840F10000274AC2E9EC
:1021D0000010274800232549026803C9FEF71BFEAB
:1021E000244A03C2234806C8214800680024A1FBF2
:1021F000003502FB005001FB04011C48D0E900201F
:10220000D21A60EB01001C49C1E90020194800689E
:102210001A4908601A4800231749026803C9FEF7E3
:10222000FAFD164AC2E902011046D0E90213144829
:102230000068A1FB002503FB005001FB04010E48D0
:10224000D0E900309A1A60EB01000E49C1E9002084
:102250000D480023026803C9FEF7DDFD074AC2E905
:10226000040138BD001000E0B4000020C0000020D0
:10227000A8000020C8000020D0000020907300209B
:10228000AC000020D8000020B0000020704710B53E
:10229000012000F0F5FE10BD10B5082000F0F0FEA2
:1022A00010BD10B5102000F0EBFE10BD10B52020C1
:1022B00000F0E6FE10BDD2ED020A92ED021AB6EE73
:1022C000000A00EEC10AD2ED030A92ED031A00EEF5
:1022D000C10AD0ED000A20EE200AD2ED010A92EDEB
:1022E000021A60EE810A92ED001AD2ED031A41EE55
:1022F000210A90ED011A00EE810AD2ED010A92ED59
:10230000031A60EE810A92ED001AD2ED021A41EE34
:10231000610A90ED021A00EE810AF0EE000A20EE4A
:10232000200A81ED000A92ED010AD2ED020A20EEA8
:10233000200AD2ED000A92ED031A00EEC10AD0ED98
:10234000000A60EE200A92ED011AD2ED011AB6EEF3
:10235000000A01EE610AD2ED031A92ED032AB0EEF3
:10236000401A01EEC21AD0ED011AB0EE600A01EE79
:10237000210AD2ED020A92ED031A60EE810A92ED73
:10238000001AD2ED011A41EE210A90ED021A00EE78
:10239000810AF0EE000A20EE200A81ED010A92ED9A
:1023A000010AD2ED030A20EE200AD2ED000A92EDD6
:1023B000021A00EE810AD0ED000A20EE200AD2EDCA
:1023C000020A92ED031A60EE810A92ED001AD2ED34
:1023D000011A41EE610A90ED011A00EE810A92EDB8
:1023E000011AD2ED011AF6EE000A41EE610A92EDF1
:1023F000021AD2ED021A41EE610A90ED021A00EEC5
:10240000810AF0EE000A20EE200A81ED020A7047F0
:1024100072B600BFFEE7000030B5034613B94FF6B1
:10242000FF7030BD09E013F8014B82EA0400C0B22E
:10243000054D35F8100080EA2222081EA1F10101A5
:10244000F1D11046EDE70000880D010870B50A488B
:102450000468001D0568001D0668344454B1082254
:102460000649204605F03EFB042204491031284667
:1024700005F038FB70BD0000107AFF1FFE0400203D
:1024800008B500BF04F05AFE04F096FF64200DF07A
:10249000E1FA002411E00EF0EDF8009005F0D2F919
:1024A00005F0DAF8601C84B2642C02DB04F0A8FEAC
:1024B0000024012168460DF0FBFAECE710B5024656
:1024C00092F82030012B01D0022B06D11068406910
:1024D000084314686061002010BD506A40F48020F9
:1024E00050620120F8E7F0B504460D461E4694F808
:1024F000207020688368A86800B900E000BF012F41
:1025000001D0022F7CD103F0806030B903F000606D
:1025100018B903F08050002873D0C3F30161022979
:1025200005D9606A40F4000060620120F0BD01201E
:1025300088403060A86860B9B5F800C0E86840EA33
:102540004C5C206800F5C07000EB0110C0F800C0C2
:102550000FE0D5E901C040EACC00D5F80CC040EA54
:102560000C00D4F800C00CF5C07C0CEB011CCCF8BE
:102570000000D5F810C0206800F5C07000EB011015
:10258000C0F804C0287D01280ED1206800F5C07075
:1025900000EB0110406840F4807C206800F5C070BA
:1025A00000EB0110C0F804C0D079000692F806C014
:1025B00040EA0C4092F805C040EA0C2C10794CEA35
:1025C000000C206800F5C07000EB0110C0F80CC0D2
:1025D000D078000692F802C040EA0C4092F801C0A0
:1025E00040EA0C2092F800C040EA0C00D4F800C089
:1025F0000CF5C07C0CEB011CCCF80800206801E055
:1026000016E00FE000F5C07000EB0110006840F02C
:10261000010C206800F5C07000EB0110C0F800C08C
:10262000002083E7606A40F40010606201207DE7CB
:10263000606A40F480206062012077E7F0B50446CC
:102640000A46216894F82050012D01D0022D7ED138
:10265000424901F50071086840F00100086008680F
:1026600020F47C5008600868566A40EA062008603A
:10267000107D00F01F06012000FA06F3C869984398
:10268000C861A1F50071D069C8B9D1F80C029843AE
:10269000C1F80C02908880B2968940EA064601F59E
:1026A0001070576940F83760108880B2168940EA88
:1026B000064601F51070576900EBC7004660D06907
:1026C000012819D1D1F80C021843C1F80C029088E6
:1026D00080B2168840EA064601F51070576940F846
:1026E0003760908980B2168940EA064601F510707D
:1026F000576900EBC7004660906928B9D1F8040219
:102700009843C1F8040204E0D1F804021843C1F868
:102710000402106928B9D1F814029843C1F81402D0
:1027200004E0D1F814021843C1F81402106A012819
:1027300004D1D1F81C021843C1F81C02D1F80002E0
:1027400020F00100C1F800020020F0BDFFE7606A40
:1027500040F4802060620120F7E700000064004040
:10276000704770B5044694F82050012D01D0022D19
:102770007CD151B92068C06800F0030080B9606A5C
:1027800040F400106062012070BD2068006900F014
:10279000030028B9606A40F4001060620120F3E78A
:1027A000206800F5D87000EB0110006800F004000C
:1027B0009060906840B9206800F5D87000EB011077
:1027C0000068400D106007E0206800F5D87000EB4D
:1027D00001100068C0085060206800F5D87000EB58
:1027E0000110006800F002004008D060206800F589
:1027F000D87000EB0110406800F00F0010612068F5
:1028000000F5D87000EB0110406800F47F40000A2A
:102810009061206800F5D87000EB01104068000C52
:102820005061206800F5D87000EB011080681870C6
:10283000206800F5D87000EB0110806800F47F403C
:10284000000A5870206800F5D87000EB011080680D
:1028500000F47F00000C9870206800F5D87000EB41
:1028600001108068000ED870206800E031E000F5AB
:10287000D87000EB0110C0681871206800F5D8709E
:1028800000EB0110C06800F47F40000A5871206816
:1028900000F5D87000EB0110C06800F47F00000C58
:1028A0009871206800F5D87000EB0110C068000E28
:1028B000D87131B92068C06840F020002668F06007
:1028C00005E02068006940F02000266830610020A3
:1028D0005AE7606A40F480206062012054E72DE9E5
:1028E000F05F04460025206846692068D0F804900F
:1028F000206887682068D0F80CA02068D0F810B055
:102900002068D0F8188006F00100002855D007F0A4
:102910000100C0B101202168886007F0020018B1F1
:10292000204600F006FB0EE007F0040010B145F46D
:10293000006508E007F0080010B145F4805502E09A
:10294000204600F0F5FA07F48070C8B14FF48070AB
:102950002168886007F4007018B1204600F0EBFA97
:102960000EE007F4806010B145F4005508E007F46C
:10297000006010B145F4804502E0204600F0DAFA2C
:1029800007F48030C8B14FF480302168886007F4C4
:10299000003018B1204600F0D0FA0EE007F4802095
:1029A00010B145F4004508E007F4002010B145F4EB
:1029B000803502E0204600F0BFFA06F0080038B18A
:1029C0000AF0100020B145F4007510202168C8609D
:1029D00006F0040040B10AF0080028B10820216880
:1029E000C860204600F02CFA06F0020038B12068DA
:1029F000C06800F0030010B1204600F023FA06F092
:102A0000400038B10BF0100020B145F48065102073
:102A10002168086106F0200040B10BF0080028B1E1
:102A2000082021680861204600F02EFA06F0100008
:102A300038B12068006900F0030010B1204600F0B2
:102A400025FA06F4003040B109F0100028B110203A
:102A500021684860204600F03BFA06F4803040B11F
:102A600009F0080028B1082021684860204600F0DD
:102A700065FA06F4004088B309F0040078B306F460
:102A8000807020B108F0010008B145F0010506F49E
:102A9000007020B108F0020008B145F0020506F40C
:102AA000806020B108F0040008B145F0040506F488
:102AB0000060A0B108F0700088B108F070004028F4
:102AC00017D006DC10280BD020280CD0302819D1C4
:102AD0000CE0502810D0602814D110E01DE019E05F
:102AE00045F008050FE045F010050CE045F0200525
:102AF00009E045F0400506E045F0800503E045F4B7
:102B0000807500E000BF00BF2068806920F0700081
:102B1000216888610420216848602DB1606A2843DB
:102B200060622046FFF71CFEBDE8F09F70B50446CA
:102B30000CB9012070BD94F8200010B9204600F0B7
:102B4000AFF82068006820F002002168086000F0FB
:102B5000ABFB05460DE000F0A7FB401B0A2808D997
:102B6000606A40F400306062052084F82000012093
:102B7000E0E72068406800F002000028EBD1206800
:102B8000006840F001002168086000F08DFB0546F8
:102B90000DE000F089FB401B0A2808D9606A40F468
:102BA00000306062052084F820000120C2E7206820
:102BB000406800F001000028EBD0207E012806D1FB
:102BC0002068006840F080002168086005E0206807
:102BD000006820F0800021680860607E012806D12E
:102BE0002068006840F040002168086005E0206827
:102BF000006820F0400021680860A07E012806D10E
:102C00002068006840F020002168086005E0206826
:102C1000006820F0200021680860E07E012806D1CD
:102C20002068006820F010002168086005E0206836
:102C3000006840F0100021680860207F012806D15C
:102C40002068006840F008002168086005E02068FE
:102C5000006820F0080021680860607F012806D124
:102C60002068006840F004002168086005E02068E2
:102C7000006820F0040021680860D4E902010843DC
:102C800021690843616908436168491E0843216856
:102C9000C86100206062012084F82000002049E71C
:102CA00010B586B00446142101A8FEF7CCF95E49A0
:102CB0002068884251D15D480068401C5B4908602B
:102CC0000846006801280FD100BF00200090584836
:102CD000006840F00070564908600846006800F03F
:102CE0000070009000BF00BF00BF0020009050485F
:102CF0001038006840F008004D4910390860084657
:102D0000006800F00800009000BF00BF03200190A1
:102D100002200290002003900320049009200590D7
:102D200001A9444800F0BAF900220521132000F05F
:102D3000D3FC132000F0C0FC00220521142000F079
:102D4000CBFC142000F0B8FC00220521152000F077
:102D5000C3FC152000F0B0FC64E0374920688842CD
:102D600060D100BF002000903148006840F08060D2
:102D70002F4908600846006800F08060009000BF9E
:102D800000BF2A480068401C2849086008460068BF
:102D900001280FD100BF002000902548006840F0B6
:102DA0000070234908600846006800F00070009039
:102DB00000BF00BF00BF002000901D481038006811
:102DC00040F002001A49103908600846006800F017
:102DD0000200009000BF00BF60200190022002901E
:102DE00000200390032004900920059001A91348B6
:102DF00000F054F9002205213F2000F06DFC3F2037
:102E000000F05AFC00220521402000F065FC402023
:102E100000F052FC00220521412000F05DFC412021
:102E200000F04AFC06B010BD006400401C00002009
:102E300040380240000C024000680040000402409C
:102E40007047000010B58AB0044601AB03AA002108
:102E50002046FFF786FC0949206888420AD1084AC3
:102E600001A903A80AF0B8F8064A01A903A80AF0C4
:102E7000B3F800E000BF0AB010BD000000640040DD
:102E800098E30020ECE300207047000010B58AB002
:102E9000044601AB03AA01212046FFF762FC094961
:102EA000206888420AD1084A01A903A80AF094F8C8
:102EB000064A01A903A80AF08FF800E000BF0AB093
:102EC00010BD00000064004098E30020ECE3002007
:102ED000704770B5044694F82000012822D10220E2
:102EE00084F820002068006820F001002168086054
:102EF00000F0DAF905460DE000F0D6F9401B0A288B
:102F000008D9606A40F400306062052084F820002F
:102F1000012070BD2068406800F001000028EBD15E
:102F20006062F6E7606A40F4002060620120F0E72A
:102F30007047704770477047704770477047014649
:102F400091F83500022803D08020486501207047A1
:102F5000052081F835000868006820F001000A6843
:102F600010600020F3E700002DE9F0410446002541
:102F700000F09AF9074614B90120BDE8F081606AB3
:102F800000B100BF00BF002084F8340000BF022061
:102F900084F835002068006820F00100216808608E
:102FA0000AE000F081F9C01B052805D920206065E2
:102FB000032084F83500E0E72068006800F0010095
:102FC0000028EED12068056821480540D4E90101B8
:102FD0000843E16808432169084361690843A1691E
:102FE0000843E1690843216A08430543606A0428ED
:102FF00003D1D4E90B01084305432068056020682C
:10300000456925F00705606A0543606A04280DD10B
:10301000A06A0543E06A48B12046FEF787FF28B161
:1030200040206065012084F83500A6E720684561EE
:103030002046FEF761FF064694F85C103F2088406A
:10304000B06000206065012084F83500002094E71E
:103050003F8010F070B5044600F026F9064625467C
:10306000681C10B104480078054400BF00F01CF94A
:10307000801BA842FAD370BD2800002070470000D2
:1030800010B5044604480068204020B1024804609E
:103090002046FFF7F3FF10BD143C0140F8B502468F
:1030A0000B460025002400200021DCE0012606FA62
:1030B00001F51E6806EA0504AC4273D15E68022E73
:1030C00002D05E68122E13D1CF0802F1200656F806
:1030D00027004E07F70E0F26BE40B0434F07FF0EE6
:1030E0001E69BE403043CF0802F1200646F8270093
:1030F00010684F000326BE40B0431E7906F0030659
:103100004F00BE40304310605E68012E08D05E68FC
:10311000022E05D05E68112E02D05E68122E13D1E9
:1031200090684F000326BE40B0434F00DE68BE40AB
:1031300030439060506801268E40B0431E79C6F33C
:1031400000168E4030435060D0684F000326BE40CA
:10315000B0434F009E68BE403043D0605E6806F0CA
:103160008056B6F1805F7DD100BF00260096404EAC
:10317000366846F480463E4F3E603E46366806F46A
:103180008046009600BF00BF3A4E8F0856F82700D1
:103190008E07370F0F26BE40B043374EB24202D1E2
:1031A000002624E05EE0354EB24201D101261EE049
:1031B000334EB24201D1022619E0324EB24201D161
:1031C000032614E0304EB24201D104260FE02F4E08
:1031D000B24201D105260AE02D4EB24201D10626A7
:1031E00005E02C4EB24201D1072600E008268F07E9
:1031F0003F0FBE4030431F4E8F0846F82700264E33
:103200003068A0435E6806F48036B6F5803F00D192
:103210002043214E3060361D3068A0435E6806F4BE
:103220000036B6F5003F00D120431B4E361D3060FE
:10323000361D3068A0435E6806F48016B6F5801F20
:1032400000D12043144E08363060361D3068A0434C
:103250005E6806F40016B6F5001F00D120430E4E3E
:103260000C363060491C1029FFF420AFF8BD000077
:103270004438024008380140000002400004024087
:1032800000080240000C02400010024000140240FE
:1032900000180240001C0240003C01400AB181615C
:1032A00001E00B048361704701480068704700002B
:1032B0002000002070B504460CB9012070BD94F8C0
:1032C0003D0028B9002084F83C00204600F0CEF8EC
:1032D000242084F83D002068006820F00100216867
:1032E000086001F0F7F905465C496068884206D835
:1032F0005B48854201D2012007E0002005E05948E3
:10330000854201D2012000E00020012800D1D5E74C
:103310005548B5FBF0F62068406820F03F00304388
:10332000216848604D496068884201D8701C07E0F8
:103330004FF4967070434FF47A71B0FBF1F0401C7B
:103340002168096A21F03F01084321680862434966
:103350006068884214D8681E61684900B0FBF1F0CB
:10336000401CC0F30B00042801D204203DE0681E7D
:1033700061684900B0FBF1F0401CC0F30B0034E081
:10338000A06838B9681E616801EB4101B0FBF1F03B
:10339000401C0AE0681E616801EBC10202EB0111EA
:1033A000B0FBF1F0401C40F48040C0F30B0008B9C2
:1033B00001201AE0A06848B9681E616801EB41016C
:1033C000B0FBF1F0401CC0F30B000CE0681E61681C
:1033D00001EBC10202EB0111B0FBF1F0401CC0F3A4
:1033E0000B0040F4804040F400402168C9694CF66D
:1033F000FF72914308432168C861D4E9070108437B
:103400002168096821F0C001084321680860D4E9F7
:10341000031008432168896848F2FF32914308434A
:1034200021688860D4E9050108432168C96821F052
:10343000FF0108432168C8602068006840F001006F
:103440002168086000202064202084F83D000020CE
:10345000206384F83E0000BF30E70000A086010032
:1034600080841E0000093D0040420F0010B586B068
:103470000446142101A8FDF7E6FD4C492068884266
:1034800040D100BF002000904948006840F0200073
:10349000474908600846006800F02000009000BF1F
:1034A00000BF03200190122002900120039003200E
:1034B00004900420059001A93E48FFF7EFFD00BFEE
:1034C000002000903A481030006840F480003849ED
:1034D000103108600846006800F48000009000BFCA
:1034E00000BF00220521212000F0F6F8212000F085
:1034F000E3F800220521222000F0EEF8222000F05F
:10350000DBF851E02C49206888424DD100BF0020F3
:1035100000902748006840F00400254908600846EC
:10352000006800F00400009000BF00BF00BF002052
:1035300000900846006840F00100086008460068F6
:1035400000F00100009000BF00BF4815019012205C
:10355000029001200390032004900420059001A90B
:103560001648FFF79BFD4FF48070019012200290E7
:1035700001200390032004900420059001A9104825
:10358000FFF78CFD00BF0020009009481030006854
:1035900040F400000649103108600846006800F455
:1035A0000000009000BF00BF06B010BD00580040F2
:1035B0003038024000140240005C00400008024025
:1035C00000000240034800680349097808440149A3
:1035D00008607047200000202800002010B50D482A
:1035E000006840F400700B4908600846006840F429
:1035F000806008600846006840F48070086003201E
:1036000000F0A8F80F2000F007F800F02BF80020D9
:1036100010BD0000003C024070B504460E48007822
:103620004FF47A71B1FBF0F00C490968B1FBF0F589
:10363000284601F0F2FC08B1012070BD102C07D221
:1036400000222146501E00F047F80548046001E0C2
:103650000120F2E70020F0E7280000202C000020E5
:103660002400002008B500BF002000901148006829
:1036700040F480400F4908600846006800F480402C
:10368000009000BF00BF00BF00200090081F00682E
:1036900040F08050091F08600846006800F0805024
:1036A000009000BF00BF00220F21901E00F014F810
:1036B00008BD00004438024001460846002809DBE6
:1036C00000F01F0301229A4043099B0003F1E0230D
:1036D000C3F8002100BF70472DE9F05F80460D461A
:1036E0001646002709F098FD074639462A46334614
:1036F00001F00700C0F1070ABAF1040F02D94FF038
:10370000040A01E0C0F1070AD14600F1040ABAF147
:10371000070F02D24FF0000A01E0A0F1030AD446DD
:103720004FF0010A0AFA09FAAAF1010A0AEA020AA2
:103730000AFA0CFA4FF0010B0BFA0CFBABF1010B80
:103740000BEA030B4AEA0B042146404609F06CFDE4
:10375000BDE8F09F00BF00F00702064B19684FF666
:10376000FF031940044B0B4343EA0221014B19604C
:1037700000BF70470CED00E00000FA0570470246FC
:103780001068416200207047F0B50346154618687E
:10379000446A21B944EA05401E68B06219E018681D
:1037A000806A04EB1044002208E0186800F582707B
:1037B00050F8220004EB1044501CC2B2481E904244
:1037C000F3D844EA0547186800F582704E1E40F8A9
:1037D00026700020F0BD10B50446D4F8080507F0A7
:1037E000D8FD10BD70B504460D4605EBC50304F1C8
:1037F0003C0101EB83010A692946D4F8080507F06A
:10380000C3FC70BD70B504460D4605EBC50304F559
:103810001F7101EB83010A692946D4F8080507F0F6
:1038200037FD70BD10B50446D4F8080507F0B4FDA7
:1038300010BD2DE9F04104460D4605F080008028BA
:1038400008D105F00F0000EBC00104F13C0000EBD3
:10385000810607E005F00F0000EBC00104F51F70C2
:1038600000EB81063146206809F088F807463846A3
:10387000BDE8F08170B504460E4606F08000802851
:103880000AD106F00F0000EBC00104F13C0000EB90
:1038900081050120687009E006F00F0000EBC0010F
:1038A00004F51F7000EB81050020687006F00F0022
:1038B000287000BF94F8BC04012801D1022070BD1B
:1038C000012084F8BC0400BF2946206808F036FBBC
:1038D00000BF002084F8BC0400BF00BFEFE770B554
:1038E00004460E4606F00F006168884201D90120A7
:1038F00070BD06F0800080280AD106F00F0000EBB2
:10390000C00104F13C0000EB81050120687009E072
:1039100006F00F0000EBC00104F51F7000EB8105FD
:10392000002068700020A87006F00F00287000BF0B
:1039300094F8BC04012801D10220D9E7012084F8C1
:10394000BC0400BF2946206808F0E0FD00BF00204D
:1039500084F8BC0400BF00BFCAE7024601F00F00B4
:1039600000EBC00302F51F7000EB8300006A704794
:103970002DE9F04705460E4690461F464FF00009D8
:1039800006F0800080280AD106F00F0000EBC0018D
:1039900005F13C0000EB81040120607009E006F0B5
:1039A0000F0000EBC00105F51F7000EB8104002043
:1039B000607006F00F002070C4F80C8027716078EA
:1039C00008B120782081022F01D10020607100BF52
:1039D00095F8BC04012802D10220BDE8F08701203F
:1039E00085F8BC0400BF2146286808F0BDF900BF77
:1039F000002085F8BC0400BF4846EEE72DE9F04101
:103A000004460E461746984606F00F0000EBC0012C
:103A100004F51F7000EB81052F61C5F818800020A8
:103A20002862687006F00F0028702069012800D114
:103A30006F6106F00F0028B9227C2946206808F043
:103A40003FFC04E0227C2946206808F0F3FD0020BA
:103A5000BDE8F08170B504460D4605F00F006168C1
:103A6000884201D9012070BD05F0800080280AD16C
:103A700005F00F0000EBC00104F13C0000EB8106F3
:103A80000120707007E005EBC50104F51F7000EB25
:103A90008106002070700120B07005F00F003070BA
:103AA00000BF94F8BC04012801D10220DBE701200B
:103AB00084F8BC0400BF3146206808F06EFD05F0B4
:103AC0000F0028B9217C04F2C442206808F0E6FC0B
:103AD00000BF002084F8BC0400BF00BFC3E72DE98D
:103AE000F04104460E461746984606F00F0000EBDC
:103AF000C00104F13C0000EB81052F61C5F818807E
:103B0000002028620120687006F00F0028702069EC
:103B1000012800D16F6106F00F0028B9227C2946E8
:103B2000206808F0CDFB04E0227C2946206808F0DC
:103B300081FD0020BDE8F0812DE9FE4F0446D4F858
:103B400000B05E46206809F000F8002874D12068B3
:103B500009F03AF808B9BDE8FE8F40F60800805930
:103B6000C0F30D20C4F8FC04206809F02DF800F023
:103B70000200022805D12068406900F00200216897
:103B80004861206809F020F800F01000102845D1A5
:103B90002068806920F0100021688861DBF820909F
:103BA00009F00F0000EBC00104F51F7000EB810A63
:103BB000C9F3434002281AD147F6F07009EA000021
:103BC00030B3C9F30A125846DAF8101009F001F8B8
:103BD000C9F30A11DAF810000844CAF81000C9F352
:103BE0000A11DAF820000844CAF8200010E0C9F3EE
:103BF000434006280CD1082204F2C441584608F07C
:103C0000E8FFC9F30A11DAF820000844CAF82000D6
:103C10002068806940F0100021688861206808F001
:103C2000D3FF00F40020B0F5002F7BD100252068E1
:103C300008F09AFF029072E0E1E2029800F00100C1
:103C4000002868D0E9B2206808F0B1FF804608F08B
:103C5000010048B1012106F5306000EB451081609C
:103C60002946204605F0D0FB08F00800082809D1B5
:103C7000082106F5306000EB45108160294620469A
:103C800005F090FB08F01000102805D1102106F572
:103C9000306000EB4510816008F00200022824D15A
:103CA000DBF8140000F08000802807D140F6040003
:103CB000805940F4806140F60400815105EBC50154
:103CC00004F51F7000EB810A9AF80300012806D161
:103CD00000208AF80300E9B2204600F09BFA022196
:103CE00006F5306000EB4510816008F020002028C8
:103CF00005D1202106F5306000EB4510816008F405
:103D00000050B0F5005F06D14FF4005106F5306069
:103D100000EB451081606D1C0298400802900298EB
:103D200000288AD1206808F04FFF00F48020B0F509
:103D3000802F7DD1206808F00DFF029000259AE0C9
:103D4000029800F00100002873D0E9B2206808F062
:103D500015FF804608F00100F0B305F00F010120C7
:103D60008840019040F634008159019821EA000012
:103D700040F634018851012106F5106000EB451032
:103D800081602069012824D105EBC50104F13C00C4
:103D900000EB810005EBC502016904F13C0000EB7A
:103DA0008200C068014405EBC50204F13C0000EB51
:103DB000820001616DB905EBC50104F13C0000EB27
:103DC0008100806928B904F2C4420121206808F00A
:103DD00065FBE9B2204600E001E0FFF703FD08F0D3
:103DE0000800082805D1082106F5106000EB4510F1
:103DF000816008F01000102805D1102106F5106030
:103E000000EB4510816008F04000402805D14021BA
:103E100006F5106000EB4510816008F002000228F2
:103E20001DD12946584608F051FE05EBC50101E0B9
:103E300025E01CE004F13C0000EB810A9AF8030045
:103E4000012806D100208AF80300E9B2204600F0DC
:103E5000D8F9022106F5106000EB4510816008F0EA
:103E60008000802803D12946204605F06FFB6D1C99
:103E7000029840080290029800287FF461AF206801
:103E800008F0A2FE00F00040B0F1004F1CD140F657
:103E90000400805920F0010140F60400815194F89B
:103EA000F404012807D1002084F8F40400212046FE
:103EB000FFF764FC02E0204600F0D4FA2068406975
:103EC00000F0004021684861206808F07DFE00F4A1
:103ED0000060B0F5006F0ED140F60800805900F088
:103EE000010010B1204600F015FB2068406900F485
:103EF000006021684861206808F066FE00F4805088
:103F0000B0F5805F7ED140F60400805920F00101B9
:103F100040F6040081511021206808F0D7FD0027E9
:103F200032E04FF67F3106F5106000EB47108160FC
:103F300006F5106000EB4710006820F4001106F54C
:103F4000106000EB471001604FF67F3106F53060DE
:103F500000EB4710816006F5306000EB4710006809
:103F600020F4001106F5306000EB4710016006F503
:103F7000306000EB4710006840F0006106F53060EB
:103F800000EB471001607F1C6068B842C9D840F65A
:103F90001C00805940F0011140F61C008151206B3B
:103FA00070B1D6F8840840F00B01C6F8841840F6CA
:103FB0004400805940F00B0140F6440081510FE06D
:103FC00040F61400805942F22B01084340F61401D8
:103FD0008851081F805940F00B014FF40160815156
:103FE000D6F8000820F4FE60C6F80008217C04F230
:103FF000C442206808F052FA2068406900F48050FA
:10400000216800E000E04861206808F0DDFD00F470
:104010000050B0F5005F17D1206807F00DFF206851
:1040200008F080FDE06000F04FFB0090227B2068EC
:10403000009908F051FE204600F0FCF92068406924
:1040400000F4005021684861206808F0BDFD00F0D0
:104050000800082808D1204600F00BFA20684069C3
:1040600000F0080021684861206808F0ADFD00F00C
:104070008000802818D1DBF8180020F08000CBF8F1
:10408000180001250DE005EBC50104F51F7000EBDC
:104090008100C078012803D1E9B22046FFF7C9FBAF
:1040A0006D1C6068A842EED8206808F08DFD00F411
:1040B0008010B0F5801F2DD1012522E006F510609B
:1040C00000EB4510D0F8009005EBC50104F13C0071
:1040D00000EB81000079012812D109F00040B0F115
:1040E000004F0DD1012105EBC50204F13C0000EBAE
:1040F0008200C170E8B240F080012046FFF799FBD2
:104100006D1C6068A842D9D82068406900F480100E
:1041100021684861206808F057FD00F40010B0F5F0
:10412000001F44D1012538E006F5306000EB451052
:10413000D0F8009005EBC50104F51F7000EB81007D
:104140000079012828D109F00040B0F1004F23D1B7
:1041500009F4803094F8FC1401F0010188421BD16D
:10416000012105EBC50204F51F7000EB8200C17050
:10417000DBF8180040F08000CBF81800DBF81400E2
:1041800000F0800040B940F60400805940F400710E
:1041900040F60400815103E06D1C6068A842C3D85A
:1041A00000BF2068406900F4001021684861206861
:1041B00008F00AFD00F08040B0F1804F08D12046A1
:1041C000FFF709FB2068406900F0804021684861E2
:1041D000206808F0F9FC00F0040004280FD12068E2
:1041E000D0F8049009F00400042802D12046FFF71B
:1041F00019FB2068406840EA09002168486000BF58
:10420000A9E470B504460D462946D4F8080507F020
:104210002FF970BD70B504460D462946D4F808053F
:1042200007F04AF970BD70B58AB0044614B9012090
:104230000AB070BD266894F8BD0428B9002084F83F
:10424000BC04204600F0A2F8032084F8BD04F06B03
:1042500000F4807008B900212161206808F028F876
:10426000282204F110016846FCF791FE94E80F0043
:1042700007F0F6FD20B1022084F8BD040120D7E745
:104280000021206808F0D5FC002531E0012105EB74
:10429000C50204F13C0000EB8200417005EBC50152
:1042A00004F13C0000F8215005EBC50100EB810052
:1042B0000581002105EBC50204F13C0000EB820002
:1042C000017105EBC50204F13C0000EB8200C16006
:1042D00005EBC50204F13C0000EB8200016105EB37
:1042E000C50204F13C0000EB82008161681CC5B28C
:1042F0006068A842CAD800252AE0002105EBC50263
:1043000004F51F7000EB8200417005EBC50104F558
:104310001F7000F82150002105EBC50200EB820060
:10432000017105EBC50204F51F7000EB8200C1604E
:1043300005EBC50204F51F7000EB8200016105EB7F
:10434000C50204F51F7000EB82008161681CC5B2D4
:104350006068A842D1D8282204F110016846FCF711
:1043600016FE94E80F0007F0B3FE20B1022084F897
:10437000BD0401205CE7002084F83800012084F8A7
:10438000BD04206807F092FE002051E710B586B00A
:104390000446142101A8FCF756FE2068B0F1A04F96
:1043A00042D100BF002000902048006840F001008A
:1043B0001E4908600846006800F00100009000BF38
:1043C00000BF4FF4C05001900220029000200390E3
:1043D000032004900A20059001A91548FEF75EFE0F
:1043E00000BF1248001D006840F080000F49091D01
:1043F000086000BF002000900C481430006840F4B2
:1044000080400A49143108600846006800F4804082
:10441000009000BF00BF00BF002211464320FFF7FD
:104420005BF94320FFF748F906B010BD3038024071
:104430000000024070B504460125E06808B9002577
:1044400006E0E068022801D1012501E0FDF7E0FF68
:104450002946D4F8080507F0D8F8D4F8080507F07D
:104460007FF870BD10B50446D4F8080507F0AEF823
:1044700010BD10B50446D4F8080507F0B2F810BD19
:1044800070B504460D4600BF94F8BC04012801D164
:10449000022070BD012084F8BC0400BF84F83850AD
:1044A0002946206808F0F9FB00BF002084F8BC040E
:1044B00000BF00BFEDE710B5044604F2C441D4F8D4
:1044C000080507F0B9F810BD70B50446256800BFAF
:1044D00094F8BC04012801D1022070BD012084F8A9
:1044E000BC0400BFA06A012806D1A069012803D03E
:1044F000A86B40F48030A863206808F0B5FA206803
:1045000007F0C2FD00BF002084F8BC0400BF00BF5C
:10451000E3E7000010B50446D4F8080507F0E9F811
:104520002068D0F8000E40F001002168C1F8000EAC
:10453000206A28B10348006840F00600014908607D
:1045400010BD000010ED00E070B504460D460CB93A
:10455000012070BD5848006800F00F00A84209D241
:1045600055490D700846006800F00F00A84201D0C0
:104570000120EEE7207800F0020002281DD120780B
:1045800000F00400042805D14C48006840F4E050D5
:104590004A490860207800F00800082805D14748FB
:1045A000006840F46040454908604448006820F0D5
:1045B000F000A168084341490860207800F001003C
:1045C000A8B36068012807D13C4808380068C0F3E8
:1045D0004040B8B90120BCE76068022802D060689A
:1045E000032807D1354808380068C0F3406048B94F
:1045F0000120AEE7314808380068C0F3400008B930
:104600000120A6E72D48006820F0030061680843F8
:104610002A490860FEF748FE064609E0FEF744FE18
:10462000801B41F28831884202D9032091E707E0DC
:104630002248006800F00C006168B0EB810FEDD1FA
:104640001D48006800F00F00A84209D91A490D70F2
:104650000846006800F00F00A84201D0012078E76A
:10466000207800F00400042807D11448006820F4E2
:10467000E050E168084311490860207800F0080024
:10468000082808D10D48006820F46040216940EAFC
:10469000C1000A49086000F03DF808490968C1F303
:1046A0000311074A515CC840064908600F20FEF715
:1046B000B3FF00204DE70000003C024008380240F4
:1046C000700D01082C0000200148006870470000B0
:1046D0002C00002000B5FFF7F7FF04490968C1F37B
:1046E0008221034A515CC84000BD000008380240E6
:1046F000800D010800B5FFF7E7FF04490968C1F321
:104700004231034A515CC84000BD000008380240F5
:10471000800D01082DE9F047002400250026A14660
:104720002548006800F00C0020B1042805D00828B6
:104730003AD105E0DFF8849039E0DFF8849036E084
:104740001D48001F006800F03F041B48001F006860
:1047500000F4800078B11A481749091F0968C1F3AD
:104760008811A0FB01700146224600233846FCF761
:1047700052FB05460EE011480F49091F0968C1F3B5
:104780008811A0FB01700146224600233846FCF741
:1047900042FB05460848001F0068C0F30140401C6A
:1047A0004600B5FBF6F902E0DFF8109000BF00BF4D
:1047B0004846BDE8F0870000083802400024F400B5
:1047C000001BB700F8B504460CB90120F8BD2078ED
:1047D00000F00100002874D0F948006800F00C00D7
:1047E00004280DD0F648006800F00C00082813D10A
:1047F000F348001F006800F48000B0F5800F0BD173
:10480000EF4808380068C0F34040002859D060687D
:10481000002856D10120D9E700BF6068B0F5803F7D
:1048200008D1E7480838006840F48030E449083986
:1048300008601EE06068B0F5A02F0DD1E048083890
:10484000006840F48020DE490839086008460068A6
:1048500040F4803008600CE0D9480838006820F443
:104860008030D749083908600846006820F4802065
:10487000086000BF606890B1FEF716FD054606E0CF
:10488000FEF712FD401B642801D903209EE7CC48A7
:1048900008380068C0F340400028F1D011E0FEF76E
:1048A00003FD054606E0FEF7FFFC401B642801D926
:1048B00003208BE7C24808380068C0F34040002856
:1048C000F1D1207800F0020002285FD1BC480068D6
:1048D00000F00C0058B1BA48006800F00C0008283D
:1048E0001CD1B748001F006800F48000B0B9B4487C
:1048F00008380068C0F3400020B1E068012801D00A
:10490000012063E7AE480838006820F0F80021690C
:1049100040EAC100AA490839086037E0E06800B3FE
:104920000120A8490860FEF7BFFC054606E0FEF737
:10493000BBFC401B022801D9032047E7A0480838E8
:104940000068C0F340000028F1D09D480838006896
:1049500020F0F800216940EAC1009949083908604F
:1049600014E0002097490860FEF79EFC054606E02B
:10497000FEF79AFC401B022801D9032026E7904845
:1049800008380068C0F340000028F1D1207800F01A
:10499000080008282CD16069A8B101208A49086064
:1049A000FEF782FC054606E0FEF77EFC401B02286F
:1049B00001D903200AE782486C300068C0F3400048
:1049C0000028F1D014E000207F490860FEF76CFC5D
:1049D000054606E0FEF768FC401B022801D90320CB
:1049E000F4E677486C300068C0F340000028F1D14D
:1049F000207800F00400042870D100267048383078
:104A0000006800F0805090B900BF002000906C4812
:104A10003830006840F080506949383108600846F5
:104A2000006800F08050009000BF00BF012667487A
:104A3000006800F48070B0B96448006840F4807089
:104A400062490860FEF730FC054606E0FEF72CFCE4
:104A5000401B022801D90320B8E65C48006800F436
:104A600080700028F2D000BFA068012808D1544807
:104A70006830006840F001005149683108601DE06D
:104A8000A06805280DD14E486830006840F0040049
:104A90004B49683108600846006840F00100086032
:104AA0000CE047486830006820F001004449683154
:104AB00008600846006820F00400086000BFA06895
:104AC000A8B1FEF7F1FB054609E0FEF7EDFB401B40
:104AD00041F28831884202D9032077E626E038483F
:104AE00068300068C0F340000028EED013E0FEF705
:104AF000DBFB054608E0FEF7D7FB401B41F288319F
:104B0000884201D9032061E62D4868300068C0F36F
:104B100040000028EFD1012E07D129483830006825
:104B200020F0805026493831086000BFA069B8B332
:104B30002348006800F00C0008285ED0A069022815
:104B400046D100201F490866FEF7AEFB054606E089
:104B5000FEF7AAFB401B022801D9032036E61848BD
:104B600008380068C0F340600028F1D1D4E907019B
:104B70000843616A40EA81110122A06AC2EB500039
:104B800041EA00412C20005D41EA00600C49091F08
:104B9000086001200B490866FEF786FB054607E022
:104BA0002DE0FEF781FB401B022801D903200DE612
:104BB000034808380068C0F340600028F1D01EE0C8
:104BC0000838024000004742800E47420070004013
:104BD00000200C490866FEF767FB054606E0FEF775
:104BE00063FB401B022801D90320EFE5064800685B
:104BF000C0F340600028F2D101E00120E6E500208A
:104C0000E4E50000000047420038024010B50446C9
:104C10000CB9012010BD606A00B900BF0021A1627B
:104C200094F8510028B9002084F85000204600F084
:104C300033F8022084F851002068006820F040001A
:104C400021680860D4E901010843E168084321694B
:104C5000084361690843218B01F400710843E1694D
:104C60000843216A0843A16A0843216808600421B7
:104C7000A06901EA1040616A084321684860206821
:104C8000C06920F400602168C861002060650120CF
:104C900084F851000020BDE710B586B00446142109
:104CA00001A8FCF7D0F94B49206888427ED100BFAB
:104CB000002000904848006840F480504649086051
:104CC0000846006800F48050009000BF00BF00BF9D
:104CD0000020009040481438006840F002003E492F
:104CE000143908600846006800F00200009000BF18
:104CF00000BF00BF002000900846006840F001009F
:104D000008600846006800F00100009000BF00BF86
:104D100018200190022002900120039003200490AB
:104D20000520059001A92D48FEF7B8F980200190D3
:104D3000022002900120039003200490052005909A
:104D400001A92748FEF7AAF92648274908604FF02D
:104D5000C0604860002124488160C1604FF48061D8
:104D60000161002141618161C1614FF44031016203
:104D700000214162FEF7F8F808B1FDF749FB00BFDA
:104D80001948E064846300BF16481830174908606A
:104D90004FF0C06048604021144881600021C1602C
:104DA0004FF4806101610021416100E010E0816108
:104DB000C1614FF40031016200214162FEF7D4F875
:104DC00008B1FDF725FB00BF0848A064846300BF5D
:104DD00006B010BD003001404438024000040240DB
:104DE0000000024040640240EC0D00204C0E002008
:104DF0002DE9FF5F0446884691461D460E9E012020
:104E000002900020019000BF94F85000012803D1C7
:104E1000022004B0BDE8F09F012084F8500000BFDC
:104E2000FEF742FA074694F851B060680390AA462C
:104E3000BBF1010F0BD00398B0F5827F04D1A068BD
:104E400010B9BBF1040F02D002200190DBE0B8F1F1
:104E5000000F03D0B9F1000F00D015B90120019067
:104E6000D1E094F85100042802D0052084F85100C4
:104E700000206065C4F83890E587A587C4F83080C5
:104E8000E586A586206460642068006800F0400024
:104E9000402805D02068006840F040002168086084
:104EA000E068B0F5006F4AD1606810B1BAF1010F47
:104EB00009D1206B00882168C860206B801C2063AA
:104EC000E08E401EE08633E02068806800F002003B
:104ED000022810D1E08E70B1029801280BD1206B0E
:104EE00000882168C860206B801C2063E08E401E13
:104EF000E086002002902068806800F0010068B120
:104F0000E08F58B12068C068A16B0880A06B801C3E
:104F1000A063E08F401EE08701200290FEF7C4F9F5
:104F2000C01BB04204D3701C10B1032001906AE092
:104F3000E08E0028C8D1E08F0028C5D14AE0606823
:104F400010B1BAF1010F09D1206B00782168087304
:104F5000206B401C2063E08E401EE08634E0206819
:104F6000806800F00200022810D1E08E70B1029833
:104F700001280BD1206B007821680873206B401C3E
:104F80002063E08E401EE08600200290206880684A
:104F900000F0010068B1E08F58B12068C068A16BD3
:104FA0000870A06B401CA063E08F401EE0870120CA
:104FB0000290FEF779F9C01BB04201D3701C00B912
:104FC00016B9032001901EE0E08E0028C7D1E08FC3
:104FD0000028C4D13A463146204604F001FD20B1F4
:104FE00001200190202060650DE0A06850B900BF4D
:104FF000002000902068C0680090206880680090C1
:1050000000BF00BF00BF012084F8510000BF002096
:1050100084F8500000BF0198FBE670B504462546B1
:10502000681EB0F1807F01D301200FE0681E4FF0B1
:10503000E02148610F214FF0FF3008F0F5F8002023
:105040004FF0E021886107200861002070BD10B595
:105050000346002200BF93F83C00012801D1022042
:1050600010BD012083F83C0000BF22F0FF00CC6897
:1050700040EA040222F440708C6840EA040222F400
:1050800080604C6840EA040222F400600C6840EA48
:10509000040222F480500C6940EA040222F4005019
:1050A0004C6940EA040222F48040CC6940EA0402E0
:1050B0001868426400BF002083F83C0000BF00BFB6
:1050C000CEE710B5024600BF92F83C00012801D19E
:1050D000022010BD012082F83C0000BF022082F8AF
:1050E0003D00106843681068846823F07003086806
:1050F000034324F080044868044310684360106848
:105100008460012082F83D0000BF002082F83C004E
:1051100000BF00BFDDE710B504460CB9012010BD8B
:1051200094F83D0028B9002084F83C00204600F0A7
:105130000DF8022084F83D00211D206804F07AFD5E
:10514000012084F83D000020E9E7000008B5344A5A
:10515000016891420FD100BF0021009131490968D7
:1051600041F001012F4A11601146096801F0010167
:10517000009100BF53E00168B1F1804F11D100BF31
:10518000002100912749091F096841F00101254AC2
:10519000121F11601146096801F00101009100BF62
:1051A0003DE0214A0168914211D100BF00210091E8
:1051B0001C49091F096841F004011A4A121F1160B5
:1051C0001146096801F00401009100BF27E0174A69
:1051D000016891420FD100BF002100911149096877
:1051E00041F002010F4A11601146096801F0020105
:1051F000009100BF13E00E4A016891420FD100BF39
:10520000002100910749096841F40031054A116005
:105210001146096801F40031009100BF00BF08BDCC
:1052200000000140443802400008004000040140F2
:10523000004401400146022081F83D000868806872
:1052400000F00702062A05D00868006840F0010057
:105250000B681860012081F83D00002070472DE99F
:10526000F04104460D4600BF94F83C00012802D1ED
:105270000220BDE8F081012084F83C0000BF02203C
:1052800084F83D002068866826F0770626F47F467D
:10529000206886602868502833D00CDC202850D045
:1052A00004DC00284BD0102851D149E0302849D0E7
:1052B00040284CD139E060282DD0702807D0B0F5B7
:1052C000805F03D0B0F5005F41D10DE040E0D5E94B
:1052D00002136A68206804F02AFD2068866846F098
:1052E00077062068866033E0D5E902136A68206893
:1052F00004F01DFD2068806840F4804021688860CB
:1053000026E0EA686968206804F01FFE50212068E2
:1053100004F018FD1CE0EA686968206804F028FEC3
:105320006021206804F00EFD12E0EA6869682068D8
:1053300004F00BFE4021206804F004FD08E000BFEB
:1053400000BF00BF2968206804F0FCFC00E000BF3B
:1053500000BF012084F83D0000BF002084F83C001D
:1053600000BF00BF85E7000010B586B004461421D9
:1053700001A8FBF768FE76492068884229D100BF62
:10538000002000907348006840F0100071490860E8
:105390000846006800F01000009000BF00BF4FF406
:1053A00020600190022002900020039004900120D0
:1053B000059001A96848FDF771FE6848FFF73AFFBC
:1053C0000021664800F006FA0421644800F002FA61
:1053D000BBE06349206888421ED100BF00200090D6
:1053E0005C48006840F008005A49086008460068B8
:1053F00000F00800009000BF00BF4FF48040019013
:10540000022002900020039004900220059001A940
:105410005448FDF743FE98E05349206888422DD157
:1054200000BF002000904B48006840F080004949D0
:1054300008600846006800F08000009000BF00BFD0
:105440004FF4E050019002200290012003900220CE
:105450000490059001A94548FDF720FE4448FFF758
:10546000E9FE0021424800F0B5F90421404800F06F
:10547000B1F908213E4800F0ADF966E03D492068E9
:10548000884239D100BF002000903248006840F4C3
:105490008070304908600846006800F48070009011
:1054A00000BF00BF00BF002000900846006840F029
:1054B000040008600846006800F00400009000BF87
:1054C00000BF8020019002200290002003900490F1
:1054D0000320059001A92848FDF7E0FD4020019038
:1054E000022002900020039004900320059001A95F
:1054F0002248FDF7D3FD28E021492068884224D1C5
:1055000000BF002000901348006840F020001149BF
:1055100008600846006800F02000009000BF00BF4F
:10552000402001900220029001200390022004906C
:105530000320059001A91348FDF7B0FD1248FFF7BD
:1055400079FE0021104800F045F906B010BD0000BA
:10555000000001403038024000100240AC0E002034
:1055600000080040000C0240000C0040001C0240FB
:105570006C0F00200004014000200240000802409F
:105580000044014000140240EC0F002070B50446B6
:105590000E46154600BF94F83C00012801D10220B8
:1055A00070BD012084F83C0000BF022084F83D005B
:1055B00035B1042D09D0082D0CD00C2D14D10EE0DE
:1055C0003146206804F0C8FB0FE03146206804F043
:1055D000FBFB0AE03146206804F034FC05E031466C
:1055E000206804F06BFC00E000BF00BF012084F8DD
:1055F0003D0000BF002084F83C0000BF00BFCFE7A3
:1056000010B504460CB9012010BD94F83D0028B92E
:10561000002084F83C00204600F00CF8022084F8BA
:105620003D00211D206804F005FB012084F83D00A9
:105630000020E9E7704770B504460D46164600BFE6
:1056400094F83C00012801D1022070BD012084F8AB
:105650003C0000BF022084F83D0036B1042E1BD070
:10566000082E31D00C2E5ED145E02946206804F08A
:1056700073FB2068806940F0080021688861206819
:10568000806920F0040021688861206880692969A8
:1056900008432168886147E02946206804F094FBAC
:1056A0002068806940F40060216888612068806912
:1056B00020F480602168886120688069296940EA57
:1056C0000120216888612FE02946206804F0BAFB98
:1056D0002068C06940F008002168C8612068C0697E
:1056E00020F004002168C8612068C0692969084366
:1056F0002168C86118E02946206804F0DFFB2068B3
:10570000C06940F400602168C8612068C06920F465
:1057100080602168C8612068C069296940EA012069
:105720002168C86100E000BF00BF012084F83D008F
:1057300000BF002084F83C0000BF00BF85E710B523
:1057400004460CB9012010BD94F83D0028B9002092
:1057500084F83C00204600F00DF8022084F83D005B
:10576000211D206804F066FA012084F83D00002025
:10577000E9E7000008B5144A016891420FD100BF63
:10578000002100911149096841F004010F4A11609C
:105790001146096801F00401009100BF13E00C4AB2
:1057A000016891420FD100BF0021009107490968AB
:1057B00041F00801054A11601146096801F008012D
:1057C000009100BF00BF08BD000800404038024003
:1057D000000C004070B504460E4601223146206898
:1057E00004F094FA0F492068884203D00E492068DB
:1057F000884201D1012000E0002028B12068406CDF
:1058000040F40040216848642068806800F0070583
:10581000062D05D02068006840F00100216808606E
:10582000002070BD000001400004014070470000EE
:105830002DE9F0470446206805682068C66820689E
:1058400047694FF00008C14605F00F08B8F1000F96
:105850000AD105F0200038B106F0200020B1204622
:1058600004F0C4FBBDE8F087B8F1000F6ED007F07C
:10587000010018B906F49070002867D005F0010007
:1058800030B106F4807018B1E06B40F00100E063C5
:1058900005F0040030B107F0010018B1E06B40F0F2
:1058A0000200E06305F0020030B107F0010018B11A
:1058B000E06B40F00400E06305F0080030B107F051
:1058C000010018B1E06B40F00800E063E06B70B3DA
:1058D00005F0200028B106F0200010B1204604F0A9
:1058E00085FB20684069C0F38019E06B00F0080078
:1058F00010B9B9F1000F23D0204604F057FB2068FF
:10590000406900F04000402816D12068406920F02E
:10591000400021684861606B50B11748616B0865B1
:10592000606BFDF70CFB10B1606B016D88470CE0FC
:105930002046FFF77BFF08E02046FFF777FF04E0F3
:105940002046FFF773FF0020E0638BE705F080003F
:1059500030B106F0800018B1204604F04FFD81E719
:1059600005F0400030B106F0400018B1204604F0C8
:105970002DFB77E700BF75E7999F000810B5044637
:105980000CB9012010BDA06900B100E000BF94F87F
:10599000390028B9002084F83800204600F028F8A3
:1059A000242084F839002068C06820F40050216861
:1059B000C860204604F06EFB2068006920F4904027
:1059C000216808612068406920F02A002168486148
:1059D0002068C06840F400502168C8600020E0637F
:1059E000202084F8390084F83A000020CAE700003B
:1059F00010B586B00446142101A8FBF724FB7D49AD
:105A00002068884256D100BF002000907A48006884
:105A100040F01000784908600846006800F0100067
:105A2000009000BF00BF00BF0020009072481438F3
:105A3000006840F0020070491439086008460068A8
:105A400000F00200009000BF00BF00BF00200090E7
:105A50000846006840F0010008600846006800F051
:105A60000100009000BF00BF802001900220029042
:105A700000200390032004900720059001A95F48AF
:105A8000FDF70CFB4FF40070019002200290002003
:105A90000390032004900720059001A95848FDF7C2
:105AA000FDFA002205212520FDF716FE2520FDF731
:105AB00003FE9CE05349206888425BD100BF002070
:105AC00000904D48001F006840F480204A49091F9B
:105AD00008600846006800F48020009000BF00BF06
